{
  "_format": "hh-sol-artifact-1",
  "contractName": "ZinV2",
  "sourceName": "contracts/ZinV2.sol",
  "abi": [
    {
      "inputs": [
        {
          "internalType": "address",
          "name": "target",
          "type": "address"
        }
      ],
      "name": "AddressEmptyCode",
      "type": "error"
    },
    {
      "inputs": [
        {
          "internalType": "address",
          "name": "implementation",
          "type": "address"
        }
      ],
      "name": "ERC1967InvalidImplementation",
      "type": "error"
    },
    {
      "inputs": [],
      "name": "ERC1967NonPayable",
      "type": "error"
    },
    {
      "inputs": [],
      "name": "FailedInnerCall",
      "type": "error"
    },
    {
      "inputs": [],
      "name": "InvalidInitialization",
      "type": "error"
    },
    {
      "inputs": [],
      "name": "NotInitializing",
      "type": "error"
    },
    {
      "inputs": [
        {
          "internalType": "address",
          "name": "owner",
          "type": "address"
        }
      ],
      "name": "OwnableInvalidOwner",
      "type": "error"
    },
    {
      "inputs": [
        {
          "internalType": "address",
          "name": "account",
          "type": "address"
        }
      ],
      "name": "OwnableUnauthorizedAccount",
      "type": "error"
    },
    {
      "inputs": [],
      "name": "UUPSUnauthorizedCallContext",
      "type": "error"
    },
    {
      "inputs": [
        {
          "internalType": "bytes32",
          "name": "slot",
          "type": "bytes32"
        }
      ],
      "name": "UUPSUnsupportedProxiableUUID",
      "type": "error"
    },
    {
      "anonymous": false,
      "inputs": [
        {
          "indexed": false,
          "internalType": "uint64",
          "name": "version",
          "type": "uint64"
        }
      ],
      "name": "Initialized",
      "type": "event"
    },
    {
      "anonymous": false,
      "inputs": [
        {
          "indexed": true,
          "internalType": "address",
          "name": "previousOwner",
          "type": "address"
        },
        {
          "indexed": true,
          "internalType": "address",
          "name": "newOwner",
          "type": "address"
        }
      ],
      "name": "OwnershipTransferred",
      "type": "event"
    },
    {
      "anonymous": false,
      "inputs": [
        {
          "indexed": true,
          "internalType": "address",
          "name": "implementation",
          "type": "address"
        }
      ],
      "name": "Upgraded",
      "type": "event"
    },
    {
      "inputs": [],
      "name": "UPGRADE_INTERFACE_VERSION",
      "outputs": [
        {
          "internalType": "string",
          "name": "",
          "type": "string"
        }
      ],
      "stateMutability": "view",
      "type": "function"
    },
    {
      "inputs": [],
      "name": "addObject",
      "outputs": [],
      "stateMutability": "nonpayable",
      "type": "function"
    },
    {
      "inputs": [],
      "name": "dumaVersion",
      "outputs": [
        {
          "internalType": "uint256",
          "name": "",
          "type": "uint256"
        }
      ],
      "stateMutability": "pure",
      "type": "function"
    },
    {
      "inputs": [
        {
          "internalType": "uint256",
          "name": "objects",
          "type": "uint256"
        },
        {
          "internalType": "address",
          "name": "multisig",
          "type": "address"
        }
      ],
      "name": "initialize",
      "outputs": [],
      "stateMutability": "nonpayable",
      "type": "function"
    },
    {
      "inputs": [],
      "name": "moduloByTwo",
      "outputs": [],
      "stateMutability": "nonpayable",
      "type": "function"
    },
    {
      "inputs": [],
      "name": "multiplyByTwo",
      "outputs": [],
      "stateMutability": "nonpayable",
      "type": "function"
    },
    {
      "inputs": [],
      "name": "num",
      "outputs": [
        {
          "internalType": "uint256",
          "name": "",
          "type": "uint256"
        }
      ],
      "stateMutability": "view",
      "type": "function"
    },
    {
      "inputs": [],
      "name": "owner",
      "outputs": [
        {
          "internalType": "address",
          "name": "",
          "type": "address"
        }
      ],
      "stateMutability": "view",
      "type": "function"
    },
    {
      "inputs": [],
      "name": "proxiableUUID",
      "outputs": [
        {
          "internalType": "bytes32",
          "name": "",
          "type": "bytes32"
        }
      ],
      "stateMutability": "view",
      "type": "function"
    },
    {
      "inputs": [],
      "name": "removeObject",
      "outputs": [],
      "stateMutability": "nonpayable",
      "type": "function"
    },
    {
      "inputs": [],
      "name": "renounceOwnership",
      "outputs": [],
      "stateMutability": "nonpayable",
      "type": "function"
    },
    {
      "inputs": [
        {
          "internalType": "address",
          "name": "newOwner",
          "type": "address"
        }
      ],
      "name": "transferOwnership",
      "outputs": [],
      "stateMutability": "nonpayable",
      "type": "function"
    },
    {
      "inputs": [
        {
          "internalType": "address",
          "name": "newImplementation",
          "type": "address"
        },
        {
          "internalType": "bytes",
          "name": "data",
          "type": "bytes"
        }
      ],
      "name": "upgradeToAndCall",
      "outputs": [],
      "stateMutability": "payable",
      "type": "function"
    }
  ],
  "bytecode": "0x60a06040523073ffffffffffffffffffffffffffffffffffffffff1660809073ffffffffffffffffffffffffffffffffffffffff1681525034801561004357600080fd5b506080516115a861006d6000396000818161063d01528181610692015261084d01526115a86000f3fe6080604052600436106100c25760003560e01c8063715018a61161007f578063ad3cb1cc11610059578063ad3cb1cc146101d7578063cb22df8a14610202578063da35a26f1461022d578063f2fde38b14610256576100c2565b8063715018a61461017e578063840f9ba5146101955780638da5cb5b146101ac576100c2565b80630b12625e146100c75780632102ffaa146100de5780634e70b1dc146100f55780634f1ef2861461012057806352d1902d1461013c57806362029d2a14610167575b600080fd5b3480156100d357600080fd5b506100dc61027f565b005b3480156100ea57600080fd5b506100f361029a565b005b34801561010157600080fd5b5061010a6102fa565b6040516101179190610edb565b60405180910390f35b61013a600480360381019061013591906110ae565b610300565b005b34801561014857600080fd5b5061015161031f565b60405161015e9190611123565b60405180910390f35b34801561017357600080fd5b5061017c610352565b005b34801561018a57600080fd5b5061019361036d565b005b3480156101a157600080fd5b506101aa610381565b005b3480156101b857600080fd5b506101c161039c565b6040516101ce919061114d565b60405180910390f35b3480156101e357600080fd5b506101ec6103d4565b6040516101f991906111e7565b60405180910390f35b34801561020e57600080fd5b5061021761040d565b6040516102249190610edb565b60405180910390f35b34801561023957600080fd5b50610254600480360381019061024f9190611235565b610416565b005b34801561026257600080fd5b5061027d60048036038101906102789190611275565b6105b5565b005b600260008082825461029191906112d1565b92505081905550565b6001600054116102df576040517f08c379a00000000000000000000000000000000000000000000000000000000081526004016102d69061135f565b60405180910390fd5b60016000808282546102f1919061137f565b92505081905550565b60005481565b61030861063b565b61031182610721565b61031b828261072c565b5050565b600061032961084b565b7f360894a13ba1a3210667c828492db98dca3e2076cc3735a920a3ca505d382bbc60001b905090565b600160008082825461036491906113b3565b92505081905550565b6103756108d2565b61037f6000610959565b565b60026000808282546103939190611416565b92505081905550565b6000806103a7610a30565b90508060000160009054906101000a900473ffffffffffffffffffffffffffffffffffffffff1691505090565b6040518060400160405280600581526020017f352e302e3000000000000000000000000000000000000000000000000000000081525081565b60006002905090565b6000610420610a58565b905060008160000160089054906101000a900460ff1615905060008260000160009054906101000a900467ffffffffffffffff1690506000808267ffffffffffffffff1614801561046e5750825b9050600060018367ffffffffffffffff161480156104a3575060003073ffffffffffffffffffffffffffffffffffffffff163b145b9050811580156104b1575080155b156104e8576040517ff92ee8a900000000000000000000000000000000000000000000000000000000815260040160405180910390fd5b60018560000160006101000a81548167ffffffffffffffff021916908367ffffffffffffffff16021790555083156105385760018560000160086101000a81548160ff0219169083151502179055505b610540610a80565b61054986610a8a565b8660008190555083156105ac5760008560000160086101000a81548160ff0219169083151502179055507fc7f505b2f371ae2175ee4913f4499e1f2633a7b5936321eed1cdaeb6115181d260016040516105a391906114a0565b60405180910390a15b50505050505050565b6105bd6108d2565b600073ffffffffffffffffffffffffffffffffffffffff168173ffffffffffffffffffffffffffffffffffffffff160361062f5760006040517f1e4fbdf7000000000000000000000000000000000000000000000000000000008152600401610626919061114d565b60405180910390fd5b61063881610959565b50565b7f000000000000000000000000000000000000000000000000000000000000000073ffffffffffffffffffffffffffffffffffffffff163073ffffffffffffffffffffffffffffffffffffffff1614806106e857507f000000000000000000000000000000000000000000000000000000000000000073ffffffffffffffffffffffffffffffffffffffff166106cf610a9e565b73ffffffffffffffffffffffffffffffffffffffff1614155b1561071f576040517fe07c8dba00000000000000000000000000000000000000000000000000000000815260040160405180910390fd5b565b6107296108d2565b50565b8173ffffffffffffffffffffffffffffffffffffffff166352d1902d6040518163ffffffff1660e01b8152600401602060405180830381865afa92505050801561079457506040513d601f19601f8201168201806040525081019061079191906114e7565b60015b6107d557816040517f4c9c8ce30000000000000000000000000000000000000000000000000000000081526004016107cc919061114d565b60405180910390fd5b7f360894a13ba1a3210667c828492db98dca3e2076cc3735a920a3ca505d382bbc60001b811461083c57806040517faa1d49a40000000000000000000000000000000000000000000000000000000081526004016108339190611123565b60405180910390fd5b6108468383610af5565b505050565b7f000000000000000000000000000000000000000000000000000000000000000073ffffffffffffffffffffffffffffffffffffffff163073ffffffffffffffffffffffffffffffffffffffff16146108d0576040517fe07c8dba00000000000000000000000000000000000000000000000000000000815260040160405180910390fd5b565b6108da610b68565b73ffffffffffffffffffffffffffffffffffffffff166108f861039c565b73ffffffffffffffffffffffffffffffffffffffff16146109575761091b610b68565b6040517f118cdaa700000000000000000000000000000000000000000000000000000000815260040161094e919061114d565b60405180910390fd5b565b6000610963610a30565b905060008160000160009054906101000a900473ffffffffffffffffffffffffffffffffffffffff169050828260000160006101000a81548173ffffffffffffffffffffffffffffffffffffffff021916908373ffffffffffffffffffffffffffffffffffffffff1602179055508273ffffffffffffffffffffffffffffffffffffffff168173ffffffffffffffffffffffffffffffffffffffff167f8be0079c531659141344cd1fd0a4f28419497f9722a3daafe3b4186f6b6457e060405160405180910390a3505050565b60007f9016d09d72d40fdae2fd8ceac6b6234c7706214fd39c1cd1e609a0528c199300905090565b60007ff0c57e16840df040f15088dc2f81fe391c3923bec73e23a9662efc9c229c6a00905090565b610a88610b70565b565b610a92610b70565b610a9b81610bb0565b50565b6000610acc7f360894a13ba1a3210667c828492db98dca3e2076cc3735a920a3ca505d382bbc60001b610c36565b60000160009054906101000a900473ffffffffffffffffffffffffffffffffffffffff16905090565b610afe82610c40565b8173ffffffffffffffffffffffffffffffffffffffff167fbc7cd75a20ee27fd9adebab32041f755214dbc6bffa90cc0225b39da2e5c2d3b60405160405180910390a2600081511115610b5b57610b558282610d0d565b50610b64565b610b63610d91565b5b5050565b600033905090565b610b78610dce565b610bae576040517fd7e6bcf800000000000000000000000000000000000000000000000000000000815260040160405180910390fd5b565b610bb8610b70565b600073ffffffffffffffffffffffffffffffffffffffff168173ffffffffffffffffffffffffffffffffffffffff1603610c2a5760006040517f1e4fbdf7000000000000000000000000000000000000000000000000000000008152600401610c21919061114d565b60405180910390fd5b610c3381610959565b50565b6000819050919050565b60008173ffffffffffffffffffffffffffffffffffffffff163b03610c9c57806040517f4c9c8ce3000000000000000000000000000000000000000000000000000000008152600401610c93919061114d565b60405180910390fd5b80610cc97f360894a13ba1a3210667c828492db98dca3e2076cc3735a920a3ca505d382bbc60001b610c36565b60000160006101000a81548173ffffffffffffffffffffffffffffffffffffffff021916908373ffffffffffffffffffffffffffffffffffffffff16021790555050565b60606000808473ffffffffffffffffffffffffffffffffffffffff1684604051610d37919061155b565b600060405180830381855af49150503d8060008114610d72576040519150601f19603f3d011682016040523d82523d6000602084013e610d77565b606091505b5091509150610d87858383610dee565b9250505092915050565b6000341115610dcc576040517fb398979f00000000000000000000000000000000000000000000000000000000815260040160405180910390fd5b565b6000610dd8610a58565b60000160089054906101000a900460ff16905090565b606082610e0357610dfe82610e7d565b610e75565b60008251148015610e2b575060008473ffffffffffffffffffffffffffffffffffffffff163b145b15610e6d57836040517f9996b315000000000000000000000000000000000000000000000000000000008152600401610e64919061114d565b60405180910390fd5b819050610e76565b5b9392505050565b600081511115610e905780518082602001fd5b6040517f1425ea4200000000000000000000000000000000000000000000000000000000815260040160405180910390fd5b6000819050919050565b610ed581610ec2565b82525050565b6000602082019050610ef06000830184610ecc565b92915050565b6000604051905090565b600080fd5b600080fd5b600073ffffffffffffffffffffffffffffffffffffffff82169050919050565b6000610f3582610f0a565b9050919050565b610f4581610f2a565b8114610f5057600080fd5b50565b600081359050610f6281610f3c565b92915050565b600080fd5b600080fd5b6000601f19601f8301169050919050565b7f4e487b7100000000000000000000000000000000000000000000000000000000600052604160045260246000fd5b610fbb82610f72565b810181811067ffffffffffffffff82111715610fda57610fd9610f83565b5b80604052505050565b6000610fed610ef6565b9050610ff98282610fb2565b919050565b600067ffffffffffffffff82111561101957611018610f83565b5b61102282610f72565b9050602081019050919050565b82818337600083830152505050565b600061105161104c84610ffe565b610fe3565b90508281526020810184848401111561106d5761106c610f6d565b5b61107884828561102f565b509392505050565b600082601f83011261109557611094610f68565b5b81356110a584826020860161103e565b91505092915050565b600080604083850312156110c5576110c4610f00565b5b60006110d385828601610f53565b925050602083013567ffffffffffffffff8111156110f4576110f3610f05565b5b61110085828601611080565b9150509250929050565b6000819050919050565b61111d8161110a565b82525050565b60006020820190506111386000830184611114565b92915050565b61114781610f2a565b82525050565b6000602082019050611162600083018461113e565b92915050565b600081519050919050565b600082825260208201905092915050565b60005b838110156111a2578082015181840152602081019050611187565b60008484015250505050565b60006111b982611168565b6111c38185611173565b93506111d3818560208601611184565b6111dc81610f72565b840191505092915050565b6000602082019050818103600083015261120181846111ae565b905092915050565b61121281610ec2565b811461121d57600080fd5b50565b60008135905061122f81611209565b92915050565b6000806040838503121561124c5761124b610f00565b5b600061125a85828601611220565b925050602061126b85828601610f53565b9150509250929050565b60006020828403121561128b5761128a610f00565b5b600061129984828501610f53565b91505092915050565b7f4e487b7100000000000000000000000000000000000000000000000000000000600052601160045260246000fd5b60006112dc82610ec2565b91506112e783610ec2565b92508282026112f581610ec2565b9150828204841483151761130c5761130b6112a2565b5b5092915050565b7f4e6f7468696e6720696e73696465000000000000000000000000000000000000600082015250565b6000611349600e83611173565b915061135482611313565b602082019050919050565b600060208201905081810360008301526113788161133c565b9050919050565b600061138a82610ec2565b915061139583610ec2565b92508282039050818111156113ad576113ac6112a2565b5b92915050565b60006113be82610ec2565b91506113c983610ec2565b92508282019050808211156113e1576113e06112a2565b5b92915050565b7f4e487b7100000000000000000000000000000000000000000000000000000000600052601260045260246000fd5b600061142182610ec2565b915061142c83610ec2565b92508261143c5761143b6113e7565b5b828206905092915050565b6000819050919050565b600067ffffffffffffffff82169050919050565b6000819050919050565b600061148a61148561148084611447565b611465565b611451565b9050919050565b61149a8161146f565b82525050565b60006020820190506114b56000830184611491565b92915050565b6114c48161110a565b81146114cf57600080fd5b50565b6000815190506114e1816114bb565b92915050565b6000602082840312156114fd576114fc610f00565b5b600061150b848285016114d2565b91505092915050565b600081519050919050565b600081905092915050565b600061153582611514565b61153f818561151f565b935061154f818560208601611184565b80840191505092915050565b6000611567828461152a565b91508190509291505056fea264697066735822122016cb6838361b5bf060a5a0de5edc571713fcba23bac304495a5d59a986f77df464736f6c63430008140033",
  "linkReferences": {},
  "deployedLinkReferences": {}
}