{
  "_format": "hh-sol-artifact-1",
  "contractName": "GaaveiRewardToken",
  "sourceName": "contracts/GaaveiRewardToken.sol",
  "abi": [
    {
      "inputs": [],
      "stateMutability": "nonpayable",
      "type": "constructor"
    },
    {
      "inputs": [],
      "name": "AccessControlBadConfirmation",
      "type": "error"
    },
    {
      "inputs": [
        {
          "internalType": "address",
          "name": "account",
          "type": "address"
        },
        {
          "internalType": "bytes32",
          "name": "neededRole",
          "type": "bytes32"
        }
      ],
      "name": "AccessControlUnauthorizedAccount",
      "type": "error"
    },
    {
      "inputs": [
        {
          "internalType": "address",
          "name": "spender",
          "type": "address"
        },
        {
          "internalType": "uint256",
          "name": "allowance",
          "type": "uint256"
        },
        {
          "internalType": "uint256",
          "name": "needed",
          "type": "uint256"
        }
      ],
      "name": "ERC20InsufficientAllowance",
      "type": "error"
    },
    {
      "inputs": [
        {
          "internalType": "address",
          "name": "sender",
          "type": "address"
        },
        {
          "internalType": "uint256",
          "name": "balance",
          "type": "uint256"
        },
        {
          "internalType": "uint256",
          "name": "needed",
          "type": "uint256"
        }
      ],
      "name": "ERC20InsufficientBalance",
      "type": "error"
    },
    {
      "inputs": [
        {
          "internalType": "address",
          "name": "approver",
          "type": "address"
        }
      ],
      "name": "ERC20InvalidApprover",
      "type": "error"
    },
    {
      "inputs": [
        {
          "internalType": "address",
          "name": "receiver",
          "type": "address"
        }
      ],
      "name": "ERC20InvalidReceiver",
      "type": "error"
    },
    {
      "inputs": [
        {
          "internalType": "address",
          "name": "sender",
          "type": "address"
        }
      ],
      "name": "ERC20InvalidSender",
      "type": "error"
    },
    {
      "inputs": [
        {
          "internalType": "address",
          "name": "spender",
          "type": "address"
        }
      ],
      "name": "ERC20InvalidSpender",
      "type": "error"
    },
    {
      "inputs": [],
      "name": "EnforcedPause",
      "type": "error"
    },
    {
      "inputs": [],
      "name": "ExpectedPause",
      "type": "error"
    },
    {
      "inputs": [
        {
          "internalType": "address",
          "name": "owner",
          "type": "address"
        }
      ],
      "name": "OwnableInvalidOwner",
      "type": "error"
    },
    {
      "inputs": [
        {
          "internalType": "address",
          "name": "account",
          "type": "address"
        }
      ],
      "name": "OwnableUnauthorizedAccount",
      "type": "error"
    },
    {
      "anonymous": false,
      "inputs": [
        {
          "indexed": true,
          "internalType": "address",
          "name": "owner",
          "type": "address"
        },
        {
          "indexed": true,
          "internalType": "address",
          "name": "spender",
          "type": "address"
        },
        {
          "indexed": false,
          "internalType": "uint256",
          "name": "value",
          "type": "uint256"
        }
      ],
      "name": "Approval",
      "type": "event"
    },
    {
      "anonymous": false,
      "inputs": [
        {
          "indexed": true,
          "internalType": "address",
          "name": "previousOwner",
          "type": "address"
        },
        {
          "indexed": true,
          "internalType": "address",
          "name": "newOwner",
          "type": "address"
        }
      ],
      "name": "OwnershipTransferred",
      "type": "event"
    },
    {
      "anonymous": false,
      "inputs": [
        {
          "indexed": false,
          "internalType": "address",
          "name": "account",
          "type": "address"
        }
      ],
      "name": "Paused",
      "type": "event"
    },
    {
      "anonymous": false,
      "inputs": [
        {
          "indexed": true,
          "internalType": "bytes32",
          "name": "role",
          "type": "bytes32"
        },
        {
          "indexed": true,
          "internalType": "bytes32",
          "name": "previousAdminRole",
          "type": "bytes32"
        },
        {
          "indexed": true,
          "internalType": "bytes32",
          "name": "newAdminRole",
          "type": "bytes32"
        }
      ],
      "name": "RoleAdminChanged",
      "type": "event"
    },
    {
      "anonymous": false,
      "inputs": [
        {
          "indexed": true,
          "internalType": "bytes32",
          "name": "role",
          "type": "bytes32"
        },
        {
          "indexed": true,
          "internalType": "address",
          "name": "account",
          "type": "address"
        },
        {
          "indexed": true,
          "internalType": "address",
          "name": "sender",
          "type": "address"
        }
      ],
      "name": "RoleGranted",
      "type": "event"
    },
    {
      "anonymous": false,
      "inputs": [
        {
          "indexed": true,
          "internalType": "bytes32",
          "name": "role",
          "type": "bytes32"
        },
        {
          "indexed": true,
          "internalType": "address",
          "name": "account",
          "type": "address"
        },
        {
          "indexed": true,
          "internalType": "address",
          "name": "sender",
          "type": "address"
        }
      ],
      "name": "RoleRevoked",
      "type": "event"
    },
    {
      "anonymous": false,
      "inputs": [
        {
          "indexed": true,
          "internalType": "address",
          "name": "from",
          "type": "address"
        },
        {
          "indexed": true,
          "internalType": "address",
          "name": "to",
          "type": "address"
        },
        {
          "indexed": false,
          "internalType": "uint256",
          "name": "value",
          "type": "uint256"
        }
      ],
      "name": "Transfer",
      "type": "event"
    },
    {
      "anonymous": false,
      "inputs": [
        {
          "indexed": false,
          "internalType": "address",
          "name": "account",
          "type": "address"
        }
      ],
      "name": "Unpaused",
      "type": "event"
    },
    {
      "inputs": [],
      "name": "DEFAULT_ADMIN_ROLE",
      "outputs": [
        {
          "internalType": "bytes32",
          "name": "",
          "type": "bytes32"
        }
      ],
      "stateMutability": "view",
      "type": "function"
    },
    {
      "inputs": [
        {
          "internalType": "address",
          "name": "owner",
          "type": "address"
        },
        {
          "internalType": "address",
          "name": "spender",
          "type": "address"
        }
      ],
      "name": "allowance",
      "outputs": [
        {
          "internalType": "uint256",
          "name": "",
          "type": "uint256"
        }
      ],
      "stateMutability": "view",
      "type": "function"
    },
    {
      "inputs": [
        {
          "internalType": "address",
          "name": "spender",
          "type": "address"
        },
        {
          "internalType": "uint256",
          "name": "value",
          "type": "uint256"
        }
      ],
      "name": "approve",
      "outputs": [
        {
          "internalType": "bool",
          "name": "",
          "type": "bool"
        }
      ],
      "stateMutability": "nonpayable",
      "type": "function"
    },
    {
      "inputs": [
        {
          "internalType": "address",
          "name": "account",
          "type": "address"
        }
      ],
      "name": "balanceOf",
      "outputs": [
        {
          "internalType": "uint256",
          "name": "",
          "type": "uint256"
        }
      ],
      "stateMutability": "view",
      "type": "function"
    },
    {
      "inputs": [
        {
          "internalType": "uint256",
          "name": "value",
          "type": "uint256"
        }
      ],
      "name": "burn",
      "outputs": [],
      "stateMutability": "nonpayable",
      "type": "function"
    },
    {
      "inputs": [
        {
          "internalType": "address",
          "name": "account",
          "type": "address"
        },
        {
          "internalType": "uint256",
          "name": "value",
          "type": "uint256"
        }
      ],
      "name": "burnFrom",
      "outputs": [],
      "stateMutability": "nonpayable",
      "type": "function"
    },
    {
      "inputs": [],
      "name": "decimals",
      "outputs": [
        {
          "internalType": "uint8",
          "name": "",
          "type": "uint8"
        }
      ],
      "stateMutability": "view",
      "type": "function"
    },
    {
      "inputs": [
        {
          "internalType": "bytes32",
          "name": "role",
          "type": "bytes32"
        }
      ],
      "name": "getRoleAdmin",
      "outputs": [
        {
          "internalType": "bytes32",
          "name": "",
          "type": "bytes32"
        }
      ],
      "stateMutability": "view",
      "type": "function"
    },
    {
      "inputs": [
        {
          "internalType": "bytes32",
          "name": "role",
          "type": "bytes32"
        },
        {
          "internalType": "address",
          "name": "account",
          "type": "address"
        }
      ],
      "name": "grantRole",
      "outputs": [],
      "stateMutability": "nonpayable",
      "type": "function"
    },
    {
      "inputs": [
        {
          "internalType": "bytes32",
          "name": "role",
          "type": "bytes32"
        },
        {
          "internalType": "address",
          "name": "account",
          "type": "address"
        }
      ],
      "name": "hasRole",
      "outputs": [
        {
          "internalType": "bool",
          "name": "",
          "type": "bool"
        }
      ],
      "stateMutability": "view",
      "type": "function"
    },
    {
      "inputs": [
        {
          "internalType": "address",
          "name": "to",
          "type": "address"
        },
        {
          "internalType": "uint256",
          "name": "amount",
          "type": "uint256"
        }
      ],
      "name": "mint",
      "outputs": [],
      "stateMutability": "nonpayable",
      "type": "function"
    },
    {
      "inputs": [],
      "name": "name",
      "outputs": [
        {
          "internalType": "string",
          "name": "",
          "type": "string"
        }
      ],
      "stateMutability": "view",
      "type": "function"
    },
    {
      "inputs": [],
      "name": "owner",
      "outputs": [
        {
          "internalType": "address",
          "name": "",
          "type": "address"
        }
      ],
      "stateMutability": "view",
      "type": "function"
    },
    {
      "inputs": [],
      "name": "pause",
      "outputs": [],
      "stateMutability": "nonpayable",
      "type": "function"
    },
    {
      "inputs": [],
      "name": "paused",
      "outputs": [
        {
          "internalType": "bool",
          "name": "",
          "type": "bool"
        }
      ],
      "stateMutability": "view",
      "type": "function"
    },
    {
      "inputs": [],
      "name": "renounceOwnership",
      "outputs": [],
      "stateMutability": "nonpayable",
      "type": "function"
    },
    {
      "inputs": [
        {
          "internalType": "bytes32",
          "name": "role",
          "type": "bytes32"
        },
        {
          "internalType": "address",
          "name": "callerConfirmation",
          "type": "address"
        }
      ],
      "name": "renounceRole",
      "outputs": [],
      "stateMutability": "nonpayable",
      "type": "function"
    },
    {
      "inputs": [
        {
          "internalType": "bytes32",
          "name": "role",
          "type": "bytes32"
        },
        {
          "internalType": "address",
          "name": "account",
          "type": "address"
        }
      ],
      "name": "revokeRole",
      "outputs": [],
      "stateMutability": "nonpayable",
      "type": "function"
    },
    {
      "inputs": [
        {
          "internalType": "bytes4",
          "name": "interfaceId",
          "type": "bytes4"
        }
      ],
      "name": "supportsInterface",
      "outputs": [
        {
          "internalType": "bool",
          "name": "",
          "type": "bool"
        }
      ],
      "stateMutability": "view",
      "type": "function"
    },
    {
      "inputs": [],
      "name": "symbol",
      "outputs": [
        {
          "internalType": "string",
          "name": "",
          "type": "string"
        }
      ],
      "stateMutability": "view",
      "type": "function"
    },
    {
      "inputs": [],
      "name": "totalSupply",
      "outputs": [
        {
          "internalType": "uint256",
          "name": "",
          "type": "uint256"
        }
      ],
      "stateMutability": "view",
      "type": "function"
    },
    {
      "inputs": [
        {
          "internalType": "address",
          "name": "to",
          "type": "address"
        },
        {
          "internalType": "uint256",
          "name": "value",
          "type": "uint256"
        }
      ],
      "name": "transfer",
      "outputs": [
        {
          "internalType": "bool",
          "name": "",
          "type": "bool"
        }
      ],
      "stateMutability": "nonpayable",
      "type": "function"
    },
    {
      "inputs": [
        {
          "internalType": "address",
          "name": "from",
          "type": "address"
        },
        {
          "internalType": "address",
          "name": "to",
          "type": "address"
        },
        {
          "internalType": "uint256",
          "name": "value",
          "type": "uint256"
        }
      ],
      "name": "transferFrom",
      "outputs": [
        {
          "internalType": "bool",
          "name": "",
          "type": "bool"
        }
      ],
      "stateMutability": "nonpayable",
      "type": "function"
    },
    {
      "inputs": [
        {
          "internalType": "address",
          "name": "newOwner",
          "type": "address"
        }
      ],
      "name": "transferOwnership",
      "outputs": [],
      "stateMutability": "nonpayable",
      "type": "function"
    },
    {
      "inputs": [],
      "name": "unpause",
      "outputs": [],
      "stateMutability": "nonpayable",
      "type": "function"
    }
  ],
  "bytecode": "0x60806040523480156200001157600080fd5b50336040518060400160405280601381526020017f4761617665692052657761726420546f6b656e000000000000000000000000008152506040518060400160405280600481526020017f47415254000000000000000000000000000000000000000000000000000000008152508160039081620000909190620009f9565b508060049081620000a29190620009f9565b5050506000600560006101000a81548160ff021916908315150217905550600073ffffffffffffffffffffffffffffffffffffffff168173ffffffffffffffffffffffffffffffffffffffff1603620001355760006040517f1e4fbdf70000000000000000000000000000000000000000000000000000000081526004016200012c919062000b25565b60405180910390fd5b6200014681620001a260201b60201c565b506200015c6000801b336200026860201b60201c565b6200019c3362000171620002a260201b60201c565b600a6200017f919062000cd2565b6305f5e10062000190919062000d23565b620002ab60201b60201c565b62000e5c565b6000600560019054906101000a900473ffffffffffffffffffffffffffffffffffffffff16905081600560016101000a81548173ffffffffffffffffffffffffffffffffffffffff021916908373ffffffffffffffffffffffffffffffffffffffff1602179055508173ffffffffffffffffffffffffffffffffffffffff168173ffffffffffffffffffffffffffffffffffffffff167f8be0079c531659141344cd1fd0a4f28419497f9722a3daafe3b4186f6b6457e060405160405180910390a35050565b62000279826200033860201b60201c565b6200028a816200035860201b60201c565b6200029c83836200037c60201b60201c565b50505050565b60006012905090565b600073ffffffffffffffffffffffffffffffffffffffff168273ffffffffffffffffffffffffffffffffffffffff1603620003205760006040517fec442f0500000000000000000000000000000000000000000000000000000000815260040162000317919062000b25565b60405180910390fd5b62000334600083836200048060201b60201c565b5050565b600060066000838152602001908152602001600020600101549050919050565b62000379816200036d620006b060201b60201c565b620006b860201b60201c565b50565b60006200039083836200071460201b60201c565b620004755760016006600085815260200190815260200160002060000160008473ffffffffffffffffffffffffffffffffffffffff1673ffffffffffffffffffffffffffffffffffffffff16815260200190815260200160002060006101000a81548160ff02191690831515021790555062000411620006b060201b60201c565b73ffffffffffffffffffffffffffffffffffffffff168273ffffffffffffffffffffffffffffffffffffffff16847f2f8788117e7eff1d82e926ec794901d17c78024a50270940304540a733656f0d60405160405180910390a4600190506200047a565b600090505b92915050565b600073ffffffffffffffffffffffffffffffffffffffff168373ffffffffffffffffffffffffffffffffffffffff1603620004d6578060026000828254620004c9919062000d6e565b92505081905550620005ac565b60008060008573ffffffffffffffffffffffffffffffffffffffff1673ffffffffffffffffffffffffffffffffffffffff1681526020019081526020016000205490508181101562000565578381836040517fe450d38c0000000000000000000000000000000000000000000000000000000081526004016200055c9392919062000dba565b60405180910390fd5b8181036000808673ffffffffffffffffffffffffffffffffffffffff1673ffffffffffffffffffffffffffffffffffffffff16815260200190815260200160002081905550505b600073ffffffffffffffffffffffffffffffffffffffff168273ffffffffffffffffffffffffffffffffffffffff1603620005f7578060026000828254039250508190555062000644565b806000808473ffffffffffffffffffffffffffffffffffffffff1673ffffffffffffffffffffffffffffffffffffffff168152602001908152602001600020600082825401925050819055505b8173ffffffffffffffffffffffffffffffffffffffff168373ffffffffffffffffffffffffffffffffffffffff167fddf252ad1be2c89b69c2b068fc378daa952ba7f163c4a11628f55a4df523b3ef83604051620006a3919062000df7565b60405180910390a3505050565b600033905090565b620006ca82826200071460201b60201c565b620007105780826040517fe2517d3f0000000000000000000000000000000000000000000000000000000081526004016200070792919062000e2f565b60405180910390fd5b5050565b60006006600084815260200190815260200160002060000160008373ffffffffffffffffffffffffffffffffffffffff1673ffffffffffffffffffffffffffffffffffffffff16815260200190815260200160002060009054906101000a900460ff16905092915050565b600081519050919050565b7f4e487b7100000000000000000000000000000000000000000000000000000000600052604160045260246000fd5b7f4e487b7100000000000000000000000000000000000000000000000000000000600052602260045260246000fd5b600060028204905060018216806200080157607f821691505b602082108103620008175762000816620007b9565b5b50919050565b60008190508160005260206000209050919050565b60006020601f8301049050919050565b600082821b905092915050565b600060088302620008817fffffffffffffffffffffffffffffffffffffffffffffffffffffffffffffffff8262000842565b6200088d868362000842565b95508019841693508086168417925050509392505050565b6000819050919050565b6000819050919050565b6000620008da620008d4620008ce84620008a5565b620008af565b620008a5565b9050919050565b6000819050919050565b620008f683620008b9565b6200090e6200090582620008e1565b8484546200084f565b825550505050565b600090565b6200092562000916565b62000932818484620008eb565b505050565b5b818110156200095a576200094e6000826200091b565b60018101905062000938565b5050565b601f821115620009a95762000973816200081d565b6200097e8462000832565b810160208510156200098e578190505b620009a66200099d8562000832565b83018262000937565b50505b505050565b600082821c905092915050565b6000620009ce60001984600802620009ae565b1980831691505092915050565b6000620009e98383620009bb565b9150826002028217905092915050565b62000a04826200077f565b67ffffffffffffffff81111562000a205762000a1f6200078a565b5b62000a2c8254620007e8565b62000a398282856200095e565b600060209050601f83116001811462000a71576000841562000a5c578287015190505b62000a688582620009db565b86555062000ad8565b601f19841662000a81866200081d565b60005b8281101562000aab5784890151825560018201915060208501945060208101905062000a84565b8683101562000acb578489015162000ac7601f891682620009bb565b8355505b6001600288020188555050505b505050505050565b600073ffffffffffffffffffffffffffffffffffffffff82169050919050565b600062000b0d8262000ae0565b9050919050565b62000b1f8162000b00565b82525050565b600060208201905062000b3c600083018462000b14565b92915050565b7f4e487b7100000000000000000000000000000000000000000000000000000000600052601160045260246000fd5b60008160011c9050919050565b6000808291508390505b600185111562000bd05780860481111562000ba85762000ba762000b42565b5b600185161562000bb85780820291505b808102905062000bc88562000b71565b945062000b88565b94509492505050565b60008262000beb576001905062000cbe565b8162000bfb576000905062000cbe565b816001811462000c14576002811462000c1f5762000c55565b600191505062000cbe565b60ff84111562000c345762000c3362000b42565b5b8360020a91508482111562000c4e5762000c4d62000b42565b5b5062000cbe565b5060208310610133831016604e8410600b841016171562000c8f5782820a90508381111562000c895762000c8862000b42565b5b62000cbe565b62000c9e848484600162000b7e565b9250905081840481111562000cb85762000cb762000b42565b5b81810290505b9392505050565b600060ff82169050919050565b600062000cdf82620008a5565b915062000cec8362000cc5565b925062000d1b7fffffffffffffffffffffffffffffffffffffffffffffffffffffffffffffffff848462000bd9565b905092915050565b600062000d3082620008a5565b915062000d3d83620008a5565b925082820262000d4d81620008a5565b9150828204841483151762000d675762000d6662000b42565b5b5092915050565b600062000d7b82620008a5565b915062000d8883620008a5565b925082820190508082111562000da35762000da262000b42565b5b92915050565b62000db481620008a5565b82525050565b600060608201905062000dd1600083018662000b14565b62000de0602083018562000da9565b62000def604083018462000da9565b949350505050565b600060208201905062000e0e600083018462000da9565b92915050565b6000819050919050565b62000e298162000e14565b82525050565b600060408201905062000e46600083018562000b14565b62000e55602083018462000e1e565b9392505050565b611cb98062000e6c6000396000f3fe608060405234801561001057600080fd5b50600436106101735760003560e01c80635c975abb116100de57806391d1485411610097578063a9059cbb11610071578063a9059cbb14610414578063d547741f14610444578063dd62ed3e14610460578063f2fde38b1461049057610173565b806391d14854146103a857806395d89b41146103d8578063a217fddf146103f657610173565b80635c975abb1461030c57806370a082311461032a578063715018a61461035a57806379cc6790146103645780638456cb59146103805780638da5cb5b1461038a57610173565b80632f2ff15d116101305780632f2ff15d14610274578063313ce5671461029057806336568abe146102ae5780633f4ba83a146102ca57806340c10f19146102d457806342966c68146102f057610173565b806301ffc9a71461017857806306fdde03146101a8578063095ea7b3146101c657806318160ddd146101f657806323b872dd14610214578063248a9ca314610244575b600080fd5b610192600480360381019061018d91906116c6565b6104ac565b60405161019f919061170e565b60405180910390f35b6101b0610526565b6040516101bd91906117b9565b60405180910390f35b6101e060048036038101906101db919061186f565b6105b8565b6040516101ed919061170e565b60405180910390f35b6101fe6105db565b60405161020b91906118be565b60405180910390f35b61022e600480360381019061022991906118d9565b6105e5565b60405161023b919061170e565b60405180910390f35b61025e60048036038101906102599190611962565b610614565b60405161026b919061199e565b60405180910390f35b61028e600480360381019061028991906119b9565b610634565b005b610298610656565b6040516102a59190611a15565b60405180910390f35b6102c860048036038101906102c391906119b9565b61065f565b005b6102d26106da565b005b6102ee60048036038101906102e9919061186f565b6106ec565b005b61030a60048036038101906103059190611a30565b610746565b005b61031461075a565b604051610321919061170e565b60405180910390f35b610344600480360381019061033f9190611a5d565b610771565b60405161035191906118be565b60405180910390f35b6103626107b9565b005b61037e6004803603810190610379919061186f565b6107cd565b005b6103886107ed565b005b6103926107ff565b60405161039f9190611a99565b60405180910390f35b6103c260048036038101906103bd91906119b9565b610829565b6040516103cf919061170e565b60405180910390f35b6103e0610894565b6040516103ed91906117b9565b60405180910390f35b6103fe610926565b60405161040b919061199e565b60405180910390f35b61042e6004803603810190610429919061186f565b61092d565b60405161043b919061170e565b60405180910390f35b61045e600480360381019061045991906119b9565b610950565b005b61047a60048036038101906104759190611ab4565b610972565b60405161048791906118be565b60405180910390f35b6104aa60048036038101906104a59190611a5d565b6109f9565b005b60007f7965db0b000000000000000000000000000000000000000000000000000000007bffffffffffffffffffffffffffffffffffffffffffffffffffffffff1916827bffffffffffffffffffffffffffffffffffffffffffffffffffffffff1916148061051f575061051e82610a7f565b5b9050919050565b60606003805461053590611b23565b80601f016020809104026020016040519081016040528092919081815260200182805461056190611b23565b80156105ae5780601f10610583576101008083540402835291602001916105ae565b820191906000526020600020905b81548152906001019060200180831161059157829003601f168201915b5050505050905090565b6000806105c3610ae9565b90506105d0818585610af1565b600191505092915050565b6000600254905090565b6000806105f0610ae9565b90506105fd858285610b03565b610608858585610b97565b60019150509392505050565b600060066000838152602001908152602001600020600101549050919050565b61063d82610614565b61064681610c8b565b6106508383610c9f565b50505050565b60006012905090565b610667610ae9565b73ffffffffffffffffffffffffffffffffffffffff168173ffffffffffffffffffffffffffffffffffffffff16146106cb576040517f6697b23200000000000000000000000000000000000000000000000000000000815260040160405180910390fd5b6106d58282610d91565b505050565b6106e2610e84565b6106ea610f0b565b565b6106f96000801b33610829565b610738576040517f08c379a000000000000000000000000000000000000000000000000000000000815260040161072f90611ba0565b60405180910390fd5b6107428282610f6e565b5050565b610757610751610ae9565b82610ff0565b50565b6000600560009054906101000a900460ff16905090565b60008060008373ffffffffffffffffffffffffffffffffffffffff1673ffffffffffffffffffffffffffffffffffffffff168152602001908152602001600020549050919050565b6107c1610e84565b6107cb6000611072565b565b6107df826107d9610ae9565b83610b03565b6107e98282610ff0565b5050565b6107f5610e84565b6107fd611138565b565b6000600560019054906101000a900473ffffffffffffffffffffffffffffffffffffffff16905090565b60006006600084815260200190815260200160002060000160008373ffffffffffffffffffffffffffffffffffffffff1673ffffffffffffffffffffffffffffffffffffffff16815260200190815260200160002060009054906101000a900460ff16905092915050565b6060600480546108a390611b23565b80601f01602080910402602001604051908101604052809291908181526020018280546108cf90611b23565b801561091c5780601f106108f15761010080835404028352916020019161091c565b820191906000526020600020905b8154815290600101906020018083116108ff57829003601f168201915b5050505050905090565b6000801b81565b600080610938610ae9565b9050610945818585610b97565b600191505092915050565b61095982610614565b61096281610c8b565b61096c8383610d91565b50505050565b6000600160008473ffffffffffffffffffffffffffffffffffffffff1673ffffffffffffffffffffffffffffffffffffffff16815260200190815260200160002060008373ffffffffffffffffffffffffffffffffffffffff1673ffffffffffffffffffffffffffffffffffffffff16815260200190815260200160002054905092915050565b610a01610e84565b600073ffffffffffffffffffffffffffffffffffffffff168173ffffffffffffffffffffffffffffffffffffffff1603610a735760006040517f1e4fbdf7000000000000000000000000000000000000000000000000000000008152600401610a6a9190611a99565b60405180910390fd5b610a7c81611072565b50565b60007f01ffc9a7000000000000000000000000000000000000000000000000000000007bffffffffffffffffffffffffffffffffffffffffffffffffffffffff1916827bffffffffffffffffffffffffffffffffffffffffffffffffffffffff1916149050919050565b600033905090565b610afe838383600161119b565b505050565b6000610b0f8484610972565b90507fffffffffffffffffffffffffffffffffffffffffffffffffffffffffffffffff8114610b915781811015610b81578281836040517ffb8f41b2000000000000000000000000000000000000000000000000000000008152600401610b7893929190611bc0565b60405180910390fd5b610b908484848403600061119b565b5b50505050565b600073ffffffffffffffffffffffffffffffffffffffff168373ffffffffffffffffffffffffffffffffffffffff1603610c095760006040517f96c6fd1e000000000000000000000000000000000000000000000000000000008152600401610c009190611a99565b60405180910390fd5b600073ffffffffffffffffffffffffffffffffffffffff168273ffffffffffffffffffffffffffffffffffffffff1603610c7b5760006040517fec442f05000000000000000000000000000000000000000000000000000000008152600401610c729190611a99565b60405180910390fd5b610c86838383611372565b505050565b610c9c81610c97610ae9565b611597565b50565b6000610cab8383610829565b610d865760016006600085815260200190815260200160002060000160008473ffffffffffffffffffffffffffffffffffffffff1673ffffffffffffffffffffffffffffffffffffffff16815260200190815260200160002060006101000a81548160ff021916908315150217905550610d23610ae9565b73ffffffffffffffffffffffffffffffffffffffff168273ffffffffffffffffffffffffffffffffffffffff16847f2f8788117e7eff1d82e926ec794901d17c78024a50270940304540a733656f0d60405160405180910390a460019050610d8b565b600090505b92915050565b6000610d9d8383610829565b15610e795760006006600085815260200190815260200160002060000160008473ffffffffffffffffffffffffffffffffffffffff1673ffffffffffffffffffffffffffffffffffffffff16815260200190815260200160002060006101000a81548160ff021916908315150217905550610e16610ae9565b73ffffffffffffffffffffffffffffffffffffffff168273ffffffffffffffffffffffffffffffffffffffff16847ff6391f5c32d9c69d2a47ea670b442974b53935d1edc7fd64eb21e047a839171b60405160405180910390a460019050610e7e565b600090505b92915050565b610e8c610ae9565b73ffffffffffffffffffffffffffffffffffffffff16610eaa6107ff565b73ffffffffffffffffffffffffffffffffffffffff1614610f0957610ecd610ae9565b6040517f118cdaa7000000000000000000000000000000000000000000000000000000008152600401610f009190611a99565b60405180910390fd5b565b610f136115e8565b6000600560006101000a81548160ff0219169083151502179055507f5db9ee0a495bf2e6ff9c91a7834c1ba4fdd244a5e8aa4e537bd38aeae4b073aa610f57610ae9565b604051610f649190611a99565b60405180910390a1565b600073ffffffffffffffffffffffffffffffffffffffff168273ffffffffffffffffffffffffffffffffffffffff1603610fe05760006040517fec442f05000000000000000000000000000000000000000000000000000000008152600401610fd79190611a99565b60405180910390fd5b610fec60008383611372565b5050565b600073ffffffffffffffffffffffffffffffffffffffff168273ffffffffffffffffffffffffffffffffffffffff16036110625760006040517f96c6fd1e0000000000000000000000000000000000000000000000000000000081526004016110599190611a99565b60405180910390fd5b61106e82600083611372565b5050565b6000600560019054906101000a900473ffffffffffffffffffffffffffffffffffffffff16905081600560016101000a81548173ffffffffffffffffffffffffffffffffffffffff021916908373ffffffffffffffffffffffffffffffffffffffff1602179055508173ffffffffffffffffffffffffffffffffffffffff168173ffffffffffffffffffffffffffffffffffffffff167f8be0079c531659141344cd1fd0a4f28419497f9722a3daafe3b4186f6b6457e060405160405180910390a35050565b611140611628565b6001600560006101000a81548160ff0219169083151502179055507f62e78cea01bee320cd4e420270b5ea74000d11b0c9f74754ebdbfc544b05a258611184610ae9565b6040516111919190611a99565b60405180910390a1565b600073ffffffffffffffffffffffffffffffffffffffff168473ffffffffffffffffffffffffffffffffffffffff160361120d5760006040517fe602df050000000000000000000000000000000000000000000000000000000081526004016112049190611a99565b60405180910390fd5b600073ffffffffffffffffffffffffffffffffffffffff168373ffffffffffffffffffffffffffffffffffffffff160361127f5760006040517f94280d620000000000000000000000000000000000000000000000000000000081526004016112769190611a99565b60405180910390fd5b81600160008673ffffffffffffffffffffffffffffffffffffffff1673ffffffffffffffffffffffffffffffffffffffff16815260200190815260200160002060008573ffffffffffffffffffffffffffffffffffffffff1673ffffffffffffffffffffffffffffffffffffffff16815260200190815260200160002081905550801561136c578273ffffffffffffffffffffffffffffffffffffffff168473ffffffffffffffffffffffffffffffffffffffff167f8c5be1e5ebec7d5bd14f71427d1e84f3dd0314c0f7b2291e5b200ac8c7c3b9258460405161136391906118be565b60405180910390a35b50505050565b600073ffffffffffffffffffffffffffffffffffffffff168373ffffffffffffffffffffffffffffffffffffffff16036113c45780600260008282546113b89190611c26565b92505081905550611497565b60008060008573ffffffffffffffffffffffffffffffffffffffff1673ffffffffffffffffffffffffffffffffffffffff16815260200190815260200160002054905081811015611450578381836040517fe450d38c00000000000000000000000000000000000000000000000000000000815260040161144793929190611bc0565b60405180910390fd5b8181036000808673ffffffffffffffffffffffffffffffffffffffff1673ffffffffffffffffffffffffffffffffffffffff16815260200190815260200160002081905550505b600073ffffffffffffffffffffffffffffffffffffffff168273ffffffffffffffffffffffffffffffffffffffff16036114e0578060026000828254039250508190555061152d565b806000808473ffffffffffffffffffffffffffffffffffffffff1673ffffffffffffffffffffffffffffffffffffffff168152602001908152602001600020600082825401925050819055505b8173ffffffffffffffffffffffffffffffffffffffff168373ffffffffffffffffffffffffffffffffffffffff167fddf252ad1be2c89b69c2b068fc378daa952ba7f163c4a11628f55a4df523b3ef8360405161158a91906118be565b60405180910390a3505050565b6115a18282610829565b6115e45780826040517fe2517d3f0000000000000000000000000000000000000000000000000000000081526004016115db929190611c5a565b60405180910390fd5b5050565b6115f061075a565b611626576040517f8dfc202b00000000000000000000000000000000000000000000000000000000815260040160405180910390fd5b565b61163061075a565b15611667576040517fd93c066500000000000000000000000000000000000000000000000000000000815260040160405180910390fd5b565b600080fd5b60007fffffffff0000000000000000000000000000000000000000000000000000000082169050919050565b6116a38161166e565b81146116ae57600080fd5b50565b6000813590506116c08161169a565b92915050565b6000602082840312156116dc576116db611669565b5b60006116ea848285016116b1565b91505092915050565b60008115159050919050565b611708816116f3565b82525050565b600060208201905061172360008301846116ff565b92915050565b600081519050919050565b600082825260208201905092915050565b60005b83811015611763578082015181840152602081019050611748565b60008484015250505050565b6000601f19601f8301169050919050565b600061178b82611729565b6117958185611734565b93506117a5818560208601611745565b6117ae8161176f565b840191505092915050565b600060208201905081810360008301526117d38184611780565b905092915050565b600073ffffffffffffffffffffffffffffffffffffffff82169050919050565b6000611806826117db565b9050919050565b611816816117fb565b811461182157600080fd5b50565b6000813590506118338161180d565b92915050565b6000819050919050565b61184c81611839565b811461185757600080fd5b50565b60008135905061186981611843565b92915050565b6000806040838503121561188657611885611669565b5b600061189485828601611824565b92505060206118a58582860161185a565b9150509250929050565b6118b881611839565b82525050565b60006020820190506118d360008301846118af565b92915050565b6000806000606084860312156118f2576118f1611669565b5b600061190086828701611824565b935050602061191186828701611824565b92505060406119228682870161185a565b9150509250925092565b6000819050919050565b61193f8161192c565b811461194a57600080fd5b50565b60008135905061195c81611936565b92915050565b60006020828403121561197857611977611669565b5b60006119868482850161194d565b91505092915050565b6119988161192c565b82525050565b60006020820190506119b3600083018461198f565b92915050565b600080604083850312156119d0576119cf611669565b5b60006119de8582860161194d565b92505060206119ef85828601611824565b9150509250929050565b600060ff82169050919050565b611a0f816119f9565b82525050565b6000602082019050611a2a6000830184611a06565b92915050565b600060208284031215611a4657611a45611669565b5b6000611a548482850161185a565b91505092915050565b600060208284031215611a7357611a72611669565b5b6000611a8184828501611824565b91505092915050565b611a93816117fb565b82525050565b6000602082019050611aae6000830184611a8a565b92915050565b60008060408385031215611acb57611aca611669565b5b6000611ad985828601611824565b9250506020611aea85828601611824565b9150509250929050565b7f4e487b7100000000000000000000000000000000000000000000000000000000600052602260045260246000fd5b60006002820490506001821680611b3b57607f821691505b602082108103611b4e57611b4d611af4565b5b50919050565b7f556e617574686f72697a65640000000000000000000000000000000000000000600082015250565b6000611b8a600c83611734565b9150611b9582611b54565b602082019050919050565b60006020820190508181036000830152611bb981611b7d565b9050919050565b6000606082019050611bd56000830186611a8a565b611be260208301856118af565b611bef60408301846118af565b949350505050565b7f4e487b7100000000000000000000000000000000000000000000000000000000600052601160045260246000fd5b6000611c3182611839565b9150611c3c83611839565b9250828201905080821115611c5457611c53611bf7565b5b92915050565b6000604082019050611c6f6000830185611a8a565b611c7c602083018461198f565b939250505056fea2646970667358221220b65b1e091223b2f09209edea2e52b3a0a32f7820fa916520e3d074c29962913a64736f6c63430008140033",
  "linkReferences": {},
  "deployedLinkReferences": {}
}