{
  "_format": "hh-sol-artifact-1",
  "contractName": "LoyKobV2",
  "sourceName": "contracts/LoyKob.sol",
  "abi": [
    {
      "inputs": [
        {
          "internalType": "address",
          "name": "target",
          "type": "address"
        }
      ],
      "name": "AddressEmptyCode",
      "type": "error"
    },
    {
      "inputs": [
        {
          "internalType": "address",
          "name": "implementation",
          "type": "address"
        }
      ],
      "name": "ERC1967InvalidImplementation",
      "type": "error"
    },
    {
      "inputs": [],
      "name": "ERC1967NonPayable",
      "type": "error"
    },
    {
      "inputs": [
        {
          "internalType": "address",
          "name": "sender",
          "type": "address"
        },
        {
          "internalType": "uint256",
          "name": "tokenId",
          "type": "uint256"
        },
        {
          "internalType": "address",
          "name": "owner",
          "type": "address"
        }
      ],
      "name": "ERC721IncorrectOwner",
      "type": "error"
    },
    {
      "inputs": [
        {
          "internalType": "address",
          "name": "operator",
          "type": "address"
        },
        {
          "internalType": "uint256",
          "name": "tokenId",
          "type": "uint256"
        }
      ],
      "name": "ERC721InsufficientApproval",
      "type": "error"
    },
    {
      "inputs": [
        {
          "internalType": "address",
          "name": "approver",
          "type": "address"
        }
      ],
      "name": "ERC721InvalidApprover",
      "type": "error"
    },
    {
      "inputs": [
        {
          "internalType": "address",
          "name": "operator",
          "type": "address"
        }
      ],
      "name": "ERC721InvalidOperator",
      "type": "error"
    },
    {
      "inputs": [
        {
          "internalType": "address",
          "name": "owner",
          "type": "address"
        }
      ],
      "name": "ERC721InvalidOwner",
      "type": "error"
    },
    {
      "inputs": [
        {
          "internalType": "address",
          "name": "receiver",
          "type": "address"
        }
      ],
      "name": "ERC721InvalidReceiver",
      "type": "error"
    },
    {
      "inputs": [
        {
          "internalType": "address",
          "name": "sender",
          "type": "address"
        }
      ],
      "name": "ERC721InvalidSender",
      "type": "error"
    },
    {
      "inputs": [
        {
          "internalType": "uint256",
          "name": "tokenId",
          "type": "uint256"
        }
      ],
      "name": "ERC721NonexistentToken",
      "type": "error"
    },
    {
      "inputs": [],
      "name": "FailedInnerCall",
      "type": "error"
    },
    {
      "inputs": [],
      "name": "InvalidInitialization",
      "type": "error"
    },
    {
      "inputs": [],
      "name": "NotInitializing",
      "type": "error"
    },
    {
      "inputs": [
        {
          "internalType": "address",
          "name": "owner",
          "type": "address"
        }
      ],
      "name": "OwnableInvalidOwner",
      "type": "error"
    },
    {
      "inputs": [
        {
          "internalType": "address",
          "name": "account",
          "type": "address"
        }
      ],
      "name": "OwnableUnauthorizedAccount",
      "type": "error"
    },
    {
      "inputs": [],
      "name": "UUPSUnauthorizedCallContext",
      "type": "error"
    },
    {
      "inputs": [
        {
          "internalType": "bytes32",
          "name": "slot",
          "type": "bytes32"
        }
      ],
      "name": "UUPSUnsupportedProxiableUUID",
      "type": "error"
    },
    {
      "anonymous": false,
      "inputs": [
        {
          "indexed": true,
          "internalType": "address",
          "name": "owner",
          "type": "address"
        },
        {
          "indexed": true,
          "internalType": "address",
          "name": "approved",
          "type": "address"
        },
        {
          "indexed": true,
          "internalType": "uint256",
          "name": "tokenId",
          "type": "uint256"
        }
      ],
      "name": "Approval",
      "type": "event"
    },
    {
      "anonymous": false,
      "inputs": [
        {
          "indexed": true,
          "internalType": "address",
          "name": "owner",
          "type": "address"
        },
        {
          "indexed": true,
          "internalType": "address",
          "name": "operator",
          "type": "address"
        },
        {
          "indexed": false,
          "internalType": "bool",
          "name": "approved",
          "type": "bool"
        }
      ],
      "name": "ApprovalForAll",
      "type": "event"
    },
    {
      "anonymous": false,
      "inputs": [
        {
          "indexed": false,
          "internalType": "uint64",
          "name": "version",
          "type": "uint64"
        }
      ],
      "name": "Initialized",
      "type": "event"
    },
    {
      "anonymous": false,
      "inputs": [
        {
          "indexed": true,
          "internalType": "address",
          "name": "previousOwner",
          "type": "address"
        },
        {
          "indexed": true,
          "internalType": "address",
          "name": "newOwner",
          "type": "address"
        }
      ],
      "name": "OwnershipTransferred",
      "type": "event"
    },
    {
      "anonymous": false,
      "inputs": [
        {
          "indexed": true,
          "internalType": "address",
          "name": "from",
          "type": "address"
        },
        {
          "indexed": true,
          "internalType": "address",
          "name": "to",
          "type": "address"
        },
        {
          "indexed": true,
          "internalType": "uint256",
          "name": "tokenId",
          "type": "uint256"
        }
      ],
      "name": "Transfer",
      "type": "event"
    },
    {
      "anonymous": false,
      "inputs": [
        {
          "indexed": true,
          "internalType": "address",
          "name": "implementation",
          "type": "address"
        }
      ],
      "name": "Upgraded",
      "type": "event"
    },
    {
      "inputs": [],
      "name": "UPGRADE_INTERFACE_VERSION",
      "outputs": [
        {
          "internalType": "string",
          "name": "",
          "type": "string"
        }
      ],
      "stateMutability": "view",
      "type": "function"
    },
    {
      "inputs": [
        {
          "internalType": "address",
          "name": "to",
          "type": "address"
        },
        {
          "internalType": "uint256",
          "name": "tokenId",
          "type": "uint256"
        }
      ],
      "name": "approve",
      "outputs": [],
      "stateMutability": "nonpayable",
      "type": "function"
    },
    {
      "inputs": [
        {
          "internalType": "address",
          "name": "owner",
          "type": "address"
        }
      ],
      "name": "balanceOf",
      "outputs": [
        {
          "internalType": "uint256",
          "name": "",
          "type": "uint256"
        }
      ],
      "stateMutability": "view",
      "type": "function"
    },
    {
      "inputs": [
        {
          "internalType": "uint256",
          "name": "tokenId",
          "type": "uint256"
        }
      ],
      "name": "getApproved",
      "outputs": [
        {
          "internalType": "address",
          "name": "",
          "type": "address"
        }
      ],
      "stateMutability": "view",
      "type": "function"
    },
    {
      "inputs": [],
      "name": "increment",
      "outputs": [],
      "stateMutability": "nonpayable",
      "type": "function"
    },
    {
      "inputs": [],
      "name": "incrementJlom",
      "outputs": [],
      "stateMutability": "nonpayable",
      "type": "function"
    },
    {
      "inputs": [
        {
          "internalType": "address",
          "name": "owner",
          "type": "address"
        }
      ],
      "name": "initialize",
      "outputs": [],
      "stateMutability": "nonpayable",
      "type": "function"
    },
    {
      "inputs": [
        {
          "internalType": "address",
          "name": "owner",
          "type": "address"
        },
        {
          "internalType": "address",
          "name": "operator",
          "type": "address"
        }
      ],
      "name": "isApprovedForAll",
      "outputs": [
        {
          "internalType": "bool",
          "name": "",
          "type": "bool"
        }
      ],
      "stateMutability": "view",
      "type": "function"
    },
    {
      "inputs": [],
      "name": "jlom",
      "outputs": [
        {
          "internalType": "uint256",
          "name": "",
          "type": "uint256"
        }
      ],
      "stateMutability": "view",
      "type": "function"
    },
    {
      "inputs": [],
      "name": "name",
      "outputs": [
        {
          "internalType": "string",
          "name": "",
          "type": "string"
        }
      ],
      "stateMutability": "view",
      "type": "function"
    },
    {
      "inputs": [],
      "name": "owner",
      "outputs": [
        {
          "internalType": "address",
          "name": "",
          "type": "address"
        }
      ],
      "stateMutability": "view",
      "type": "function"
    },
    {
      "inputs": [
        {
          "internalType": "uint256",
          "name": "tokenId",
          "type": "uint256"
        }
      ],
      "name": "ownerOf",
      "outputs": [
        {
          "internalType": "address",
          "name": "",
          "type": "address"
        }
      ],
      "stateMutability": "view",
      "type": "function"
    },
    {
      "inputs": [],
      "name": "proxiableUUID",
      "outputs": [
        {
          "internalType": "bytes32",
          "name": "",
          "type": "bytes32"
        }
      ],
      "stateMutability": "view",
      "type": "function"
    },
    {
      "inputs": [],
      "name": "renounceOwnership",
      "outputs": [],
      "stateMutability": "nonpayable",
      "type": "function"
    },
    {
      "inputs": [
        {
          "internalType": "address",
          "name": "from",
          "type": "address"
        },
        {
          "internalType": "address",
          "name": "to",
          "type": "address"
        },
        {
          "internalType": "uint256",
          "name": "tokenId",
          "type": "uint256"
        }
      ],
      "name": "safeTransferFrom",
      "outputs": [],
      "stateMutability": "nonpayable",
      "type": "function"
    },
    {
      "inputs": [
        {
          "internalType": "address",
          "name": "from",
          "type": "address"
        },
        {
          "internalType": "address",
          "name": "to",
          "type": "address"
        },
        {
          "internalType": "uint256",
          "name": "tokenId",
          "type": "uint256"
        },
        {
          "internalType": "bytes",
          "name": "data",
          "type": "bytes"
        }
      ],
      "name": "safeTransferFrom",
      "outputs": [],
      "stateMutability": "nonpayable",
      "type": "function"
    },
    {
      "inputs": [
        {
          "internalType": "address",
          "name": "operator",
          "type": "address"
        },
        {
          "internalType": "bool",
          "name": "approved",
          "type": "bool"
        }
      ],
      "name": "setApprovalForAll",
      "outputs": [],
      "stateMutability": "nonpayable",
      "type": "function"
    },
    {
      "inputs": [
        {
          "internalType": "bytes4",
          "name": "interfaceId",
          "type": "bytes4"
        }
      ],
      "name": "supportsInterface",
      "outputs": [
        {
          "internalType": "bool",
          "name": "",
          "type": "bool"
        }
      ],
      "stateMutability": "view",
      "type": "function"
    },
    {
      "inputs": [],
      "name": "symbol",
      "outputs": [
        {
          "internalType": "string",
          "name": "",
          "type": "string"
        }
      ],
      "stateMutability": "view",
      "type": "function"
    },
    {
      "inputs": [
        {
          "internalType": "uint256",
          "name": "tokenId",
          "type": "uint256"
        }
      ],
      "name": "tokenURI",
      "outputs": [
        {
          "internalType": "string",
          "name": "",
          "type": "string"
        }
      ],
      "stateMutability": "view",
      "type": "function"
    },
    {
      "inputs": [
        {
          "internalType": "address",
          "name": "from",
          "type": "address"
        },
        {
          "internalType": "address",
          "name": "to",
          "type": "address"
        },
        {
          "internalType": "uint256",
          "name": "tokenId",
          "type": "uint256"
        }
      ],
      "name": "transferFrom",
      "outputs": [],
      "stateMutability": "nonpayable",
      "type": "function"
    },
    {
      "inputs": [
        {
          "internalType": "address",
          "name": "newOwner",
          "type": "address"
        }
      ],
      "name": "transferOwnership",
      "outputs": [],
      "stateMutability": "nonpayable",
      "type": "function"
    },
    {
      "inputs": [
        {
          "internalType": "address",
          "name": "newImplementation",
          "type": "address"
        },
        {
          "internalType": "bytes",
          "name": "data",
          "type": "bytes"
        }
      ],
      "name": "upgradeToAndCall",
      "outputs": [],
      "stateMutability": "payable",
      "type": "function"
    }
  ],
  "bytecode": "0x60a06040523073ffffffffffffffffffffffffffffffffffffffff1660809073ffffffffffffffffffffffffffffffffffffffff1681525034801561004357600080fd5b506080516130a961006d6000396000818161121f01528181611274015261142f01526130a96000f3fe6080604052600436106101405760003560e01c8063715018a6116100b6578063b88d4fde1161006f578063b88d4fde14610429578063c4d66de814610452578063c87b56dd1461047b578063d09de08a146104b8578063e985e9c5146104cf578063f2fde38b1461050c57610140565b8063715018a61461033d578063730c45b4146103545780638da5cb5b1461037f57806395d89b41146103aa578063a22cb465146103d5578063ad3cb1cc146103fe57610140565b806342842e0e1161010857806342842e0e1461023c5780634f1ef2861461026557806352d1902d146102815780636352211e146102ac57806369e8c12d146102e957806370a082311461030057610140565b806301ffc9a71461014557806306fdde0314610182578063081812fc146101ad578063095ea7b3146101ea57806323b872dd14610213575b600080fd5b34801561015157600080fd5b5061016c6004803603810190610167919061246c565b610535565b60405161017991906124b4565b60405180910390f35b34801561018e57600080fd5b50610197610617565b6040516101a4919061255f565b60405180910390f35b3480156101b957600080fd5b506101d460048036038101906101cf91906125b7565b6106b8565b6040516101e19190612625565b60405180910390f35b3480156101f657600080fd5b50610211600480360381019061020c919061266c565b6106d4565b005b34801561021f57600080fd5b5061023a600480360381019061023591906126ac565b6106ea565b005b34801561024857600080fd5b50610263600480360381019061025e91906126ac565b6107ec565b005b61027f600480360381019061027a9190612834565b61080c565b005b34801561028d57600080fd5b5061029661082b565b6040516102a391906128a9565b60405180910390f35b3480156102b857600080fd5b506102d360048036038101906102ce91906125b7565b61085e565b6040516102e09190612625565b60405180910390f35b3480156102f557600080fd5b506102fe610870565b005b34801561030c57600080fd5b50610327600480360381019061032291906128c4565b61088b565b6040516103349190612900565b60405180910390f35b34801561034957600080fd5b50610352610954565b005b34801561036057600080fd5b50610369610968565b6040516103769190612900565b60405180910390f35b34801561038b57600080fd5b5061039461096e565b6040516103a19190612625565b60405180910390f35b3480156103b657600080fd5b506103bf6109a6565b6040516103cc919061255f565b60405180910390f35b3480156103e157600080fd5b506103fc60048036038101906103f79190612947565b610a47565b005b34801561040a57600080fd5b50610413610a5d565b604051610420919061255f565b60405180910390f35b34801561043557600080fd5b50610450600480360381019061044b9190612987565b610a96565b005b34801561045e57600080fd5b50610479600480360381019061047491906128c4565b610ab3565b005b34801561048757600080fd5b506104a2600480360381019061049d91906125b7565b610cc5565b6040516104af919061255f565b60405180910390f35b3480156104c457600080fd5b506104cd610d2e565b005b3480156104db57600080fd5b506104f660048036038101906104f19190612a0a565b610d49565b60405161050391906124b4565b60405180910390f35b34801561051857600080fd5b50610533600480360381019061052e91906128c4565b610deb565b005b60007f80ac58cd000000000000000000000000000000000000000000000000000000007bffffffffffffffffffffffffffffffffffffffffffffffffffffffff1916827bffffffffffffffffffffffffffffffffffffffffffffffffffffffff1916148061060057507f5b5e139f000000000000000000000000000000000000000000000000000000007bffffffffffffffffffffffffffffffffffffffffffffffffffffffff1916827bffffffffffffffffffffffffffffffffffffffffffffffffffffffff1916145b80610610575061060f82610e71565b5b9050919050565b60606000610623610edb565b905080600001805461063490612a79565b80601f016020809104026020016040519081016040528092919081815260200182805461066090612a79565b80156106ad5780601f10610682576101008083540402835291602001916106ad565b820191906000526020600020905b81548152906001019060200180831161069057829003601f168201915b505050505091505090565b60006106c382610f03565b506106cd82610f8b565b9050919050565b6106e682826106e1610fd6565b610fde565b5050565b600073ffffffffffffffffffffffffffffffffffffffff168273ffffffffffffffffffffffffffffffffffffffff160361075c5760006040517f64a0ae920000000000000000000000000000000000000000000000000000000081526004016107539190612625565b60405180910390fd5b6000610770838361076b610fd6565b610ff0565b90508373ffffffffffffffffffffffffffffffffffffffff168173ffffffffffffffffffffffffffffffffffffffff16146107e6578382826040517f64283d7b0000000000000000000000000000000000000000000000000000000081526004016107dd93929190612aaa565b60405180910390fd5b50505050565b61080783838360405180602001604052806000815250610a96565b505050565b61081461121d565b61081d82611303565b610827828261130e565b5050565b600061083561142d565b7f360894a13ba1a3210667c828492db98dca3e2076cc3735a920a3ca505d382bbc60001b905090565b600061086982610f03565b9050919050565b60018060008282546108829190612b10565b92505081905550565b600080610896610edb565b9050600073ffffffffffffffffffffffffffffffffffffffff168373ffffffffffffffffffffffffffffffffffffffff160361090a5760006040517f89c62b640000000000000000000000000000000000000000000000000000000081526004016109019190612625565b60405180910390fd5b8060030160008473ffffffffffffffffffffffffffffffffffffffff1673ffffffffffffffffffffffffffffffffffffffff16815260200190815260200160002054915050919050565b61095c6114b4565b610966600061153b565b565b60015481565b600080610979611612565b90508060000160009054906101000a900473ffffffffffffffffffffffffffffffffffffffff1691505090565b606060006109b2610edb565b90508060010180546109c390612a79565b80601f01602080910402602001604051908101604052809291908181526020018280546109ef90612a79565b8015610a3c5780601f10610a1157610100808354040283529160200191610a3c565b820191906000526020600020905b815481529060010190602001808311610a1f57829003601f168201915b505050505091505090565b610a59610a52610fd6565b838361163a565b5050565b6040518060400160405280600581526020017f352e302e3000000000000000000000000000000000000000000000000000000081525081565b610aa18484846106ea565b610aad848484846117b8565b50505050565b6000610abd61196f565b905060008160000160089054906101000a900460ff1615905060008260000160009054906101000a900467ffffffffffffffff1690506000808267ffffffffffffffff16148015610b0b5750825b9050600060018367ffffffffffffffff16148015610b40575060003073ffffffffffffffffffffffffffffffffffffffff163b145b905081158015610b4e575080155b15610b85576040517ff92ee8a900000000000000000000000000000000000000000000000000000000815260040160405180910390fd5b60018560000160006101000a81548167ffffffffffffffff021916908367ffffffffffffffff1602179055508315610bd55760018560000160086101000a81548160ff0219169083151502179055505b610bdd611997565b610be6866119a1565b610c5a6040518060400160405280600b81526020017f4e684261727453616b616c0000000000000000000000000000000000000000008152506040518060400160405280600381526020017f4e425300000000000000000000000000000000000000000000000000000000008152506119b5565b600080819055508315610cbd5760008560000160086101000a81548160ff0219169083151502179055507fc7f505b2f371ae2175ee4913f4499e1f2633a7b5936321eed1cdaeb6115181d26001604051610cb49190612b9d565b60405180910390a15b505050505050565b6060610cd082610f03565b506000610cdb6119cb565b90506000815111610cfb5760405180602001604052806000815250610d26565b80610d05846119e2565b604051602001610d16929190612bf4565b6040516020818303038152906040525b915050919050565b6001600080828254610d409190612b10565b92505081905550565b600080610d54610edb565b90508060050160008573ffffffffffffffffffffffffffffffffffffffff1673ffffffffffffffffffffffffffffffffffffffff16815260200190815260200160002060008473ffffffffffffffffffffffffffffffffffffffff1673ffffffffffffffffffffffffffffffffffffffff16815260200190815260200160002060009054906101000a900460ff1691505092915050565b610df36114b4565b600073ffffffffffffffffffffffffffffffffffffffff168173ffffffffffffffffffffffffffffffffffffffff1603610e655760006040517f1e4fbdf7000000000000000000000000000000000000000000000000000000008152600401610e5c9190612625565b60405180910390fd5b610e6e8161153b565b50565b60007f01ffc9a7000000000000000000000000000000000000000000000000000000007bffffffffffffffffffffffffffffffffffffffffffffffffffffffff1916827bffffffffffffffffffffffffffffffffffffffffffffffffffffffff1916149050919050565b60007f80bb2b638cc20bc4d0a60d66940f3ab4a00c1d7b313497ca82fb0b4ab0079300905090565b600080610f0f83611ab0565b9050600073ffffffffffffffffffffffffffffffffffffffff168173ffffffffffffffffffffffffffffffffffffffff1603610f8257826040517f7e273289000000000000000000000000000000000000000000000000000000008152600401610f799190612900565b60405180910390fd5b80915050919050565b600080610f96610edb565b905080600401600084815260200190815260200160002060009054906101000a900473ffffffffffffffffffffffffffffffffffffffff16915050919050565b600033905090565b610feb8383836001611afb565b505050565b600080610ffb610edb565b9050600061100885611ab0565b9050600073ffffffffffffffffffffffffffffffffffffffff168473ffffffffffffffffffffffffffffffffffffffff161461104a57611049818587611ccf565b5b600073ffffffffffffffffffffffffffffffffffffffff168173ffffffffffffffffffffffffffffffffffffffff16146110dd5761108c600086600080611afb565b60018260030160008373ffffffffffffffffffffffffffffffffffffffff1673ffffffffffffffffffffffffffffffffffffffff168152602001908152602001600020600082825403925050819055505b600073ffffffffffffffffffffffffffffffffffffffff168673ffffffffffffffffffffffffffffffffffffffff16146111625760018260030160008873ffffffffffffffffffffffffffffffffffffffff1673ffffffffffffffffffffffffffffffffffffffff168152602001908152602001600020600082825401925050819055505b8582600201600087815260200190815260200160002060006101000a81548173ffffffffffffffffffffffffffffffffffffffff021916908373ffffffffffffffffffffffffffffffffffffffff160217905550848673ffffffffffffffffffffffffffffffffffffffff168273ffffffffffffffffffffffffffffffffffffffff167fddf252ad1be2c89b69c2b068fc378daa952ba7f163c4a11628f55a4df523b3ef60405160405180910390a480925050509392505050565b7f000000000000000000000000000000000000000000000000000000000000000073ffffffffffffffffffffffffffffffffffffffff163073ffffffffffffffffffffffffffffffffffffffff1614806112ca57507f000000000000000000000000000000000000000000000000000000000000000073ffffffffffffffffffffffffffffffffffffffff166112b1611d93565b73ffffffffffffffffffffffffffffffffffffffff1614155b15611301576040517fe07c8dba00000000000000000000000000000000000000000000000000000000815260040160405180910390fd5b565b61130b6114b4565b50565b8173ffffffffffffffffffffffffffffffffffffffff166352d1902d6040518163ffffffff1660e01b8152600401602060405180830381865afa92505050801561137657506040513d601f19601f820116820180604052508101906113739190612c44565b60015b6113b757816040517f4c9c8ce30000000000000000000000000000000000000000000000000000000081526004016113ae9190612625565b60405180910390fd5b7f360894a13ba1a3210667c828492db98dca3e2076cc3735a920a3ca505d382bbc60001b811461141e57806040517faa1d49a400000000000000000000000000000000000000000000000000000000815260040161141591906128a9565b60405180910390fd5b6114288383611dea565b505050565b7f000000000000000000000000000000000000000000000000000000000000000073ffffffffffffffffffffffffffffffffffffffff163073ffffffffffffffffffffffffffffffffffffffff16146114b2576040517fe07c8dba00000000000000000000000000000000000000000000000000000000815260040160405180910390fd5b565b6114bc610fd6565b73ffffffffffffffffffffffffffffffffffffffff166114da61096e565b73ffffffffffffffffffffffffffffffffffffffff1614611539576114fd610fd6565b6040517f118cdaa70000000000000000000000000000000000000000000000000000000081526004016115309190612625565b60405180910390fd5b565b6000611545611612565b905060008160000160009054906101000a900473ffffffffffffffffffffffffffffffffffffffff169050828260000160006101000a81548173ffffffffffffffffffffffffffffffffffffffff021916908373ffffffffffffffffffffffffffffffffffffffff1602179055508273ffffffffffffffffffffffffffffffffffffffff168173ffffffffffffffffffffffffffffffffffffffff167f8be0079c531659141344cd1fd0a4f28419497f9722a3daafe3b4186f6b6457e060405160405180910390a3505050565b60007f9016d09d72d40fdae2fd8ceac6b6234c7706214fd39c1cd1e609a0528c199300905090565b6000611644610edb565b9050600073ffffffffffffffffffffffffffffffffffffffff168373ffffffffffffffffffffffffffffffffffffffff16036116b757826040517f5b08ba180000000000000000000000000000000000000000000000000000000081526004016116ae9190612625565b60405180910390fd5b818160050160008673ffffffffffffffffffffffffffffffffffffffff1673ffffffffffffffffffffffffffffffffffffffff16815260200190815260200160002060008573ffffffffffffffffffffffffffffffffffffffff1673ffffffffffffffffffffffffffffffffffffffff16815260200190815260200160002060006101000a81548160ff0219169083151502179055508273ffffffffffffffffffffffffffffffffffffffff168473ffffffffffffffffffffffffffffffffffffffff167f17307eab39ab6107e8899845ad3d59bd9653f200f220920489ca2b5937696c31846040516117aa91906124b4565b60405180910390a350505050565b60008373ffffffffffffffffffffffffffffffffffffffff163b1115611969578273ffffffffffffffffffffffffffffffffffffffff1663150b7a026117fc610fd6565b8685856040518563ffffffff1660e01b815260040161181e9493929190612cc6565b6020604051808303816000875af192505050801561185a57506040513d601f19601f820116820180604052508101906118579190612d27565b60015b6118de573d806000811461188a576040519150601f19603f3d011682016040523d82523d6000602084013e61188f565b606091505b5060008151036118d657836040517f64a0ae920000000000000000000000000000000000000000000000000000000081526004016118cd9190612625565b60405180910390fd5b805181602001fd5b63150b7a0260e01b7bffffffffffffffffffffffffffffffffffffffffffffffffffffffff1916817bffffffffffffffffffffffffffffffffffffffffffffffffffffffff19161461196757836040517f64a0ae9200000000000000000000000000000000000000000000000000000000815260040161195e9190612625565b60405180910390fd5b505b50505050565b60007ff0c57e16840df040f15088dc2f81fe391c3923bec73e23a9662efc9c229c6a00905090565b61199f611e5d565b565b6119a9611e5d565b6119b281611e9d565b50565b6119bd611e5d565b6119c78282611f23565b5050565b606060405180602001604052806000815250905090565b6060600060016119f184611f60565b01905060008167ffffffffffffffff811115611a1057611a0f612709565b5b6040519080825280601f01601f191660200182016040528015611a425781602001600182028036833780820191505090505b509050600082602001820190505b600115611aa5578080600190039150507f3031323334353637383961626364656600000000000000000000000000000000600a86061a8153600a8581611a9957611a98612d54565b5b04945060008503611a50575b819350505050919050565b600080611abb610edb565b905080600201600084815260200190815260200160002060009054906101000a900473ffffffffffffffffffffffffffffffffffffffff16915050919050565b6000611b05610edb565b90508180611b405750600073ffffffffffffffffffffffffffffffffffffffff168373ffffffffffffffffffffffffffffffffffffffff1614155b15611c74576000611b5085610f03565b9050600073ffffffffffffffffffffffffffffffffffffffff168473ffffffffffffffffffffffffffffffffffffffff1614158015611bbb57508373ffffffffffffffffffffffffffffffffffffffff168173ffffffffffffffffffffffffffffffffffffffff1614155b8015611bce5750611bcc8185610d49565b155b15611c1057836040517fa9fbf51f000000000000000000000000000000000000000000000000000000008152600401611c079190612625565b60405180910390fd5b8215611c7257848673ffffffffffffffffffffffffffffffffffffffff168273ffffffffffffffffffffffffffffffffffffffff167f8c5be1e5ebec7d5bd14f71427d1e84f3dd0314c0f7b2291e5b200ac8c7c3b92560405160405180910390a45b505b8481600401600086815260200190815260200160002060006101000a81548173ffffffffffffffffffffffffffffffffffffffff021916908373ffffffffffffffffffffffffffffffffffffffff1602179055505050505050565b611cda8383836120b3565b611d8e57600073ffffffffffffffffffffffffffffffffffffffff168373ffffffffffffffffffffffffffffffffffffffff1603611d4f57806040517f7e273289000000000000000000000000000000000000000000000000000000008152600401611d469190612900565b60405180910390fd5b81816040517f177e802f000000000000000000000000000000000000000000000000000000008152600401611d85929190612d83565b60405180910390fd5b505050565b6000611dc17f360894a13ba1a3210667c828492db98dca3e2076cc3735a920a3ca505d382bbc60001b612174565b60000160009054906101000a900473ffffffffffffffffffffffffffffffffffffffff16905090565b611df38261217e565b8173ffffffffffffffffffffffffffffffffffffffff167fbc7cd75a20ee27fd9adebab32041f755214dbc6bffa90cc0225b39da2e5c2d3b60405160405180910390a2600081511115611e5057611e4a828261224b565b50611e59565b611e586122cf565b5b5050565b611e6561230c565b611e9b576040517fd7e6bcf800000000000000000000000000000000000000000000000000000000815260040160405180910390fd5b565b611ea5611e5d565b600073ffffffffffffffffffffffffffffffffffffffff168173ffffffffffffffffffffffffffffffffffffffff1603611f175760006040517f1e4fbdf7000000000000000000000000000000000000000000000000000000008152600401611f0e9190612625565b60405180910390fd5b611f208161153b565b50565b611f2b611e5d565b6000611f35610edb565b905082816000019081611f489190612f4e565b5081816001019081611f5a9190612f4e565b50505050565b600080600090507a184f03e93ff9f4daa797ed6e38ed64bf6a1f0100000000000000008310611fbe577a184f03e93ff9f4daa797ed6e38ed64bf6a1f0100000000000000008381611fb457611fb3612d54565b5b0492506040810190505b6d04ee2d6d415b85acef81000000008310611ffb576d04ee2d6d415b85acef81000000008381611ff157611ff0612d54565b5b0492506020810190505b662386f26fc10000831061202a57662386f26fc1000083816120205761201f612d54565b5b0492506010810190505b6305f5e1008310612053576305f5e100838161204957612048612d54565b5b0492506008810190505b612710831061207857612710838161206e5761206d612d54565b5b0492506004810190505b6064831061209b576064838161209157612090612d54565b5b0492506002810190505b600a83106120aa576001810190505b80915050919050565b60008073ffffffffffffffffffffffffffffffffffffffff168373ffffffffffffffffffffffffffffffffffffffff161415801561216b57508273ffffffffffffffffffffffffffffffffffffffff168473ffffffffffffffffffffffffffffffffffffffff16148061212c575061212b8484610d49565b5b8061216a57508273ffffffffffffffffffffffffffffffffffffffff1661215283610f8b565b73ffffffffffffffffffffffffffffffffffffffff16145b5b90509392505050565b6000819050919050565b60008173ffffffffffffffffffffffffffffffffffffffff163b036121da57806040517f4c9c8ce30000000000000000000000000000000000000000000000000000000081526004016121d19190612625565b60405180910390fd5b806122077f360894a13ba1a3210667c828492db98dca3e2076cc3735a920a3ca505d382bbc60001b612174565b60000160006101000a81548173ffffffffffffffffffffffffffffffffffffffff021916908373ffffffffffffffffffffffffffffffffffffffff16021790555050565b60606000808473ffffffffffffffffffffffffffffffffffffffff1684604051612275919061305c565b600060405180830381855af49150503d80600081146122b0576040519150601f19603f3d011682016040523d82523d6000602084013e6122b5565b606091505b50915091506122c585838361232c565b9250505092915050565b600034111561230a576040517fb398979f00000000000000000000000000000000000000000000000000000000815260040160405180910390fd5b565b600061231661196f565b60000160089054906101000a900460ff16905090565b6060826123415761233c826123bb565b6123b3565b60008251148015612369575060008473ffffffffffffffffffffffffffffffffffffffff163b145b156123ab57836040517f9996b3150000000000000000000000000000000000000000000000000000000081526004016123a29190612625565b60405180910390fd5b8190506123b4565b5b9392505050565b6000815111156123ce5780518082602001fd5b6040517f1425ea4200000000000000000000000000000000000000000000000000000000815260040160405180910390fd5b6000604051905090565b600080fd5b600080fd5b60007fffffffff0000000000000000000000000000000000000000000000000000000082169050919050565b61244981612414565b811461245457600080fd5b50565b60008135905061246681612440565b92915050565b6000602082840312156124825761248161240a565b5b600061249084828501612457565b91505092915050565b60008115159050919050565b6124ae81612499565b82525050565b60006020820190506124c960008301846124a5565b92915050565b600081519050919050565b600082825260208201905092915050565b60005b838110156125095780820151818401526020810190506124ee565b60008484015250505050565b6000601f19601f8301169050919050565b6000612531826124cf565b61253b81856124da565b935061254b8185602086016124eb565b61255481612515565b840191505092915050565b600060208201905081810360008301526125798184612526565b905092915050565b6000819050919050565b61259481612581565b811461259f57600080fd5b50565b6000813590506125b18161258b565b92915050565b6000602082840312156125cd576125cc61240a565b5b60006125db848285016125a2565b91505092915050565b600073ffffffffffffffffffffffffffffffffffffffff82169050919050565b600061260f826125e4565b9050919050565b61261f81612604565b82525050565b600060208201905061263a6000830184612616565b92915050565b61264981612604565b811461265457600080fd5b50565b60008135905061266681612640565b92915050565b600080604083850312156126835761268261240a565b5b600061269185828601612657565b92505060206126a2858286016125a2565b9150509250929050565b6000806000606084860312156126c5576126c461240a565b5b60006126d386828701612657565b93505060206126e486828701612657565b92505060406126f5868287016125a2565b9150509250925092565b600080fd5b600080fd5b7f4e487b7100000000000000000000000000000000000000000000000000000000600052604160045260246000fd5b61274182612515565b810181811067ffffffffffffffff821117156127605761275f612709565b5b80604052505050565b6000612773612400565b905061277f8282612738565b919050565b600067ffffffffffffffff82111561279f5761279e612709565b5b6127a882612515565b9050602081019050919050565b82818337600083830152505050565b60006127d76127d284612784565b612769565b9050828152602081018484840111156127f3576127f2612704565b5b6127fe8482856127b5565b509392505050565b600082601f83011261281b5761281a6126ff565b5b813561282b8482602086016127c4565b91505092915050565b6000806040838503121561284b5761284a61240a565b5b600061285985828601612657565b925050602083013567ffffffffffffffff81111561287a5761287961240f565b5b61288685828601612806565b9150509250929050565b6000819050919050565b6128a381612890565b82525050565b60006020820190506128be600083018461289a565b92915050565b6000602082840312156128da576128d961240a565b5b60006128e884828501612657565b91505092915050565b6128fa81612581565b82525050565b600060208201905061291560008301846128f1565b92915050565b61292481612499565b811461292f57600080fd5b50565b6000813590506129418161291b565b92915050565b6000806040838503121561295e5761295d61240a565b5b600061296c85828601612657565b925050602061297d85828601612932565b9150509250929050565b600080600080608085870312156129a1576129a061240a565b5b60006129af87828801612657565b94505060206129c087828801612657565b93505060406129d1878288016125a2565b925050606085013567ffffffffffffffff8111156129f2576129f161240f565b5b6129fe87828801612806565b91505092959194509250565b60008060408385031215612a2157612a2061240a565b5b6000612a2f85828601612657565b9250506020612a4085828601612657565b9150509250929050565b7f4e487b7100000000000000000000000000000000000000000000000000000000600052602260045260246000fd5b60006002820490506001821680612a9157607f821691505b602082108103612aa457612aa3612a4a565b5b50919050565b6000606082019050612abf6000830186612616565b612acc60208301856128f1565b612ad96040830184612616565b949350505050565b7f4e487b7100000000000000000000000000000000000000000000000000000000600052601160045260246000fd5b6000612b1b82612581565b9150612b2683612581565b9250828201905080821115612b3e57612b3d612ae1565b5b92915050565b6000819050919050565b600067ffffffffffffffff82169050919050565b6000819050919050565b6000612b87612b82612b7d84612b44565b612b62565b612b4e565b9050919050565b612b9781612b6c565b82525050565b6000602082019050612bb26000830184612b8e565b92915050565b600081905092915050565b6000612bce826124cf565b612bd88185612bb8565b9350612be88185602086016124eb565b80840191505092915050565b6000612c008285612bc3565b9150612c0c8284612bc3565b91508190509392505050565b612c2181612890565b8114612c2c57600080fd5b50565b600081519050612c3e81612c18565b92915050565b600060208284031215612c5a57612c5961240a565b5b6000612c6884828501612c2f565b91505092915050565b600081519050919050565b600082825260208201905092915050565b6000612c9882612c71565b612ca28185612c7c565b9350612cb28185602086016124eb565b612cbb81612515565b840191505092915050565b6000608082019050612cdb6000830187612616565b612ce86020830186612616565b612cf560408301856128f1565b8181036060830152612d078184612c8d565b905095945050505050565b600081519050612d2181612440565b92915050565b600060208284031215612d3d57612d3c61240a565b5b6000612d4b84828501612d12565b91505092915050565b7f4e487b7100000000000000000000000000000000000000000000000000000000600052601260045260246000fd5b6000604082019050612d986000830185612616565b612da560208301846128f1565b9392505050565b60008190508160005260206000209050919050565b60006020601f8301049050919050565b600082821b905092915050565b600060088302612e0e7fffffffffffffffffffffffffffffffffffffffffffffffffffffffffffffffff82612dd1565b612e188683612dd1565b95508019841693508086168417925050509392505050565b6000612e4b612e46612e4184612581565b612b62565b612581565b9050919050565b6000819050919050565b612e6583612e30565b612e79612e7182612e52565b848454612dde565b825550505050565b600090565b612e8e612e81565b612e99818484612e5c565b505050565b5b81811015612ebd57612eb2600082612e86565b600181019050612e9f565b5050565b601f821115612f0257612ed381612dac565b612edc84612dc1565b81016020851015612eeb578190505b612eff612ef785612dc1565b830182612e9e565b50505b505050565b600082821c905092915050565b6000612f2560001984600802612f07565b1980831691505092915050565b6000612f3e8383612f14565b9150826002028217905092915050565b612f57826124cf565b67ffffffffffffffff811115612f7057612f6f612709565b5b612f7a8254612a79565b612f85828285612ec1565b600060209050601f831160018114612fb85760008415612fa6578287015190505b612fb08582612f32565b865550613018565b601f198416612fc686612dac565b60005b82811015612fee57848901518255600182019150602085019450602081019050612fc9565b8683101561300b5784890151613007601f891682612f14565b8355505b6001600288020188555050505b505050505050565b600081905092915050565b600061303682612c71565b6130408185613020565b93506130508185602086016124eb565b80840191505092915050565b6000613068828461302b565b91508190509291505056fea26469706673582212208e9865b250c5854820c9145604791f92cd287b5df77cf29cbd75ddcd46918ea164736f6c63430008140033",
  "linkReferences": {},
  "deployedLinkReferences": {}
}