{
  "_format": "hh-sol-artifact-1",
  "contractName": "ZinV3",
  "sourceName": "contracts/ZinV3.sol",
  "abi": [
    {
      "inputs": [
        {
          "internalType": "address",
          "name": "target",
          "type": "address"
        }
      ],
      "name": "AddressEmptyCode",
      "type": "error"
    },
    {
      "inputs": [
        {
          "internalType": "address",
          "name": "implementation",
          "type": "address"
        }
      ],
      "name": "ERC1967InvalidImplementation",
      "type": "error"
    },
    {
      "inputs": [],
      "name": "ERC1967NonPayable",
      "type": "error"
    },
    {
      "inputs": [],
      "name": "FailedInnerCall",
      "type": "error"
    },
    {
      "inputs": [],
      "name": "InvalidInitialization",
      "type": "error"
    },
    {
      "inputs": [],
      "name": "NotInitializing",
      "type": "error"
    },
    {
      "inputs": [
        {
          "internalType": "address",
          "name": "owner",
          "type": "address"
        }
      ],
      "name": "OwnableInvalidOwner",
      "type": "error"
    },
    {
      "inputs": [
        {
          "internalType": "address",
          "name": "account",
          "type": "address"
        }
      ],
      "name": "OwnableUnauthorizedAccount",
      "type": "error"
    },
    {
      "inputs": [],
      "name": "UUPSUnauthorizedCallContext",
      "type": "error"
    },
    {
      "inputs": [
        {
          "internalType": "bytes32",
          "name": "slot",
          "type": "bytes32"
        }
      ],
      "name": "UUPSUnsupportedProxiableUUID",
      "type": "error"
    },
    {
      "anonymous": false,
      "inputs": [
        {
          "indexed": false,
          "internalType": "uint64",
          "name": "version",
          "type": "uint64"
        }
      ],
      "name": "Initialized",
      "type": "event"
    },
    {
      "anonymous": false,
      "inputs": [
        {
          "indexed": true,
          "internalType": "address",
          "name": "previousOwner",
          "type": "address"
        },
        {
          "indexed": true,
          "internalType": "address",
          "name": "newOwner",
          "type": "address"
        }
      ],
      "name": "OwnershipTransferred",
      "type": "event"
    },
    {
      "anonymous": false,
      "inputs": [
        {
          "indexed": true,
          "internalType": "address",
          "name": "implementation",
          "type": "address"
        }
      ],
      "name": "Upgraded",
      "type": "event"
    },
    {
      "inputs": [],
      "name": "UPGRADE_INTERFACE_VERSION",
      "outputs": [
        {
          "internalType": "string",
          "name": "",
          "type": "string"
        }
      ],
      "stateMutability": "view",
      "type": "function"
    },
    {
      "inputs": [],
      "name": "addObject",
      "outputs": [],
      "stateMutability": "nonpayable",
      "type": "function"
    },
    {
      "inputs": [],
      "name": "dumaVersion",
      "outputs": [
        {
          "internalType": "uint256",
          "name": "",
          "type": "uint256"
        }
      ],
      "stateMutability": "pure",
      "type": "function"
    },
    {
      "inputs": [
        {
          "internalType": "uint256",
          "name": "objects",
          "type": "uint256"
        },
        {
          "internalType": "address",
          "name": "multisig",
          "type": "address"
        }
      ],
      "name": "initialize",
      "outputs": [],
      "stateMutability": "nonpayable",
      "type": "function"
    },
    {
      "inputs": [],
      "name": "moduloByTwo",
      "outputs": [],
      "stateMutability": "nonpayable",
      "type": "function"
    },
    {
      "inputs": [],
      "name": "multiplyByThree",
      "outputs": [],
      "stateMutability": "nonpayable",
      "type": "function"
    },
    {
      "inputs": [],
      "name": "multiplyByTwo",
      "outputs": [],
      "stateMutability": "nonpayable",
      "type": "function"
    },
    {
      "inputs": [],
      "name": "num",
      "outputs": [
        {
          "internalType": "uint256",
          "name": "",
          "type": "uint256"
        }
      ],
      "stateMutability": "view",
      "type": "function"
    },
    {
      "inputs": [],
      "name": "owner",
      "outputs": [
        {
          "internalType": "address",
          "name": "",
          "type": "address"
        }
      ],
      "stateMutability": "view",
      "type": "function"
    },
    {
      "inputs": [],
      "name": "proxiableUUID",
      "outputs": [
        {
          "internalType": "bytes32",
          "name": "",
          "type": "bytes32"
        }
      ],
      "stateMutability": "view",
      "type": "function"
    },
    {
      "inputs": [],
      "name": "removeObject",
      "outputs": [],
      "stateMutability": "nonpayable",
      "type": "function"
    },
    {
      "inputs": [],
      "name": "renounceOwnership",
      "outputs": [],
      "stateMutability": "nonpayable",
      "type": "function"
    },
    {
      "inputs": [
        {
          "internalType": "address",
          "name": "newOwner",
          "type": "address"
        }
      ],
      "name": "transferOwnership",
      "outputs": [],
      "stateMutability": "nonpayable",
      "type": "function"
    },
    {
      "inputs": [
        {
          "internalType": "address",
          "name": "newImplementation",
          "type": "address"
        },
        {
          "internalType": "bytes",
          "name": "data",
          "type": "bytes"
        }
      ],
      "name": "upgradeToAndCall",
      "outputs": [],
      "stateMutability": "payable",
      "type": "function"
    }
  ],
  "bytecode": "0x60a06040523073ffffffffffffffffffffffffffffffffffffffff1660809073ffffffffffffffffffffffffffffffffffffffff1681525034801561004357600080fd5b506080516115f561006d6000396000818161068a015281816106df015261089a01526115f56000f3fe6080604052600436106100dd5760003560e01c8063840f9ba51161007f578063ad3cb1cc11610059578063ad3cb1cc14610209578063cb22df8a14610234578063da35a26f1461025f578063f2fde38b14610288576100dd565b8063840f9ba5146101b05780638da5cb5b146101c7578063972fc6aa146101f2576100dd565b80634f1ef286116100bb5780634f1ef2861461013b57806352d1902d1461015757806362029d2a14610182578063715018a614610199576100dd565b80630b12625e146100e25780632102ffaa146100f95780634e70b1dc14610110575b600080fd5b3480156100ee57600080fd5b506100f76102b1565b005b34801561010557600080fd5b5061010e6102cc565b005b34801561011c57600080fd5b5061012561032c565b6040516101329190610f28565b60405180910390f35b610155600480360381019061015091906110fb565b610332565b005b34801561016357600080fd5b5061016c610351565b6040516101799190611170565b60405180910390f35b34801561018e57600080fd5b50610197610384565b005b3480156101a557600080fd5b506101ae61039f565b005b3480156101bc57600080fd5b506101c56103b3565b005b3480156101d357600080fd5b506101dc6103ce565b6040516101e9919061119a565b60405180910390f35b3480156101fe57600080fd5b50610207610406565b005b34801561021557600080fd5b5061021e610421565b60405161022b9190611234565b60405180910390f35b34801561024057600080fd5b5061024961045a565b6040516102569190610f28565b60405180910390f35b34801561026b57600080fd5b5061028660048036038101906102819190611282565b610463565b005b34801561029457600080fd5b506102af60048036038101906102aa91906112c2565b610602565b005b60026000808282546102c3919061131e565b92505081905550565b600160005411610311576040517f08c379a0000000000000000000000000000000000000000000000000000000008152600401610308906113ac565b60405180910390fd5b600160008082825461032391906113cc565b92505081905550565b60005481565b61033a610688565b6103438261076e565b61034d8282610779565b5050565b600061035b610898565b7f360894a13ba1a3210667c828492db98dca3e2076cc3735a920a3ca505d382bbc60001b905090565b60016000808282546103969190611400565b92505081905550565b6103a761091f565b6103b160006109a6565b565b60026000808282546103c59190611463565b92505081905550565b6000806103d9610a7d565b90508060000160009054906101000a900473ffffffffffffffffffffffffffffffffffffffff1691505090565b6003600080828254610418919061131e565b92505081905550565b6040518060400160405280600581526020017f352e302e3000000000000000000000000000000000000000000000000000000081525081565b60006003905090565b600061046d610aa5565b905060008160000160089054906101000a900460ff1615905060008260000160009054906101000a900467ffffffffffffffff1690506000808267ffffffffffffffff161480156104bb5750825b9050600060018367ffffffffffffffff161480156104f0575060003073ffffffffffffffffffffffffffffffffffffffff163b145b9050811580156104fe575080155b15610535576040517ff92ee8a900000000000000000000000000000000000000000000000000000000815260040160405180910390fd5b60018560000160006101000a81548167ffffffffffffffff021916908367ffffffffffffffff16021790555083156105855760018560000160086101000a81548160ff0219169083151502179055505b61058d610acd565b61059686610ad7565b8660008190555083156105f95760008560000160086101000a81548160ff0219169083151502179055507fc7f505b2f371ae2175ee4913f4499e1f2633a7b5936321eed1cdaeb6115181d260016040516105f091906114ed565b60405180910390a15b50505050505050565b61060a61091f565b600073ffffffffffffffffffffffffffffffffffffffff168173ffffffffffffffffffffffffffffffffffffffff160361067c5760006040517f1e4fbdf7000000000000000000000000000000000000000000000000000000008152600401610673919061119a565b60405180910390fd5b610685816109a6565b50565b7f000000000000000000000000000000000000000000000000000000000000000073ffffffffffffffffffffffffffffffffffffffff163073ffffffffffffffffffffffffffffffffffffffff16148061073557507f000000000000000000000000000000000000000000000000000000000000000073ffffffffffffffffffffffffffffffffffffffff1661071c610aeb565b73ffffffffffffffffffffffffffffffffffffffff1614155b1561076c576040517fe07c8dba00000000000000000000000000000000000000000000000000000000815260040160405180910390fd5b565b61077661091f565b50565b8173ffffffffffffffffffffffffffffffffffffffff166352d1902d6040518163ffffffff1660e01b8152600401602060405180830381865afa9250505080156107e157506040513d601f19601f820116820180604052508101906107de9190611534565b60015b61082257816040517f4c9c8ce3000000000000000000000000000000000000000000000000000000008152600401610819919061119a565b60405180910390fd5b7f360894a13ba1a3210667c828492db98dca3e2076cc3735a920a3ca505d382bbc60001b811461088957806040517faa1d49a40000000000000000000000000000000000000000000000000000000081526004016108809190611170565b60405180910390fd5b6108938383610b42565b505050565b7f000000000000000000000000000000000000000000000000000000000000000073ffffffffffffffffffffffffffffffffffffffff163073ffffffffffffffffffffffffffffffffffffffff161461091d576040517fe07c8dba00000000000000000000000000000000000000000000000000000000815260040160405180910390fd5b565b610927610bb5565b73ffffffffffffffffffffffffffffffffffffffff166109456103ce565b73ffffffffffffffffffffffffffffffffffffffff16146109a457610968610bb5565b6040517f118cdaa700000000000000000000000000000000000000000000000000000000815260040161099b919061119a565b60405180910390fd5b565b60006109b0610a7d565b905060008160000160009054906101000a900473ffffffffffffffffffffffffffffffffffffffff169050828260000160006101000a81548173ffffffffffffffffffffffffffffffffffffffff021916908373ffffffffffffffffffffffffffffffffffffffff1602179055508273ffffffffffffffffffffffffffffffffffffffff168173ffffffffffffffffffffffffffffffffffffffff167f8be0079c531659141344cd1fd0a4f28419497f9722a3daafe3b4186f6b6457e060405160405180910390a3505050565b60007f9016d09d72d40fdae2fd8ceac6b6234c7706214fd39c1cd1e609a0528c199300905090565b60007ff0c57e16840df040f15088dc2f81fe391c3923bec73e23a9662efc9c229c6a00905090565b610ad5610bbd565b565b610adf610bbd565b610ae881610bfd565b50565b6000610b197f360894a13ba1a3210667c828492db98dca3e2076cc3735a920a3ca505d382bbc60001b610c83565b60000160009054906101000a900473ffffffffffffffffffffffffffffffffffffffff16905090565b610b4b82610c8d565b8173ffffffffffffffffffffffffffffffffffffffff167fbc7cd75a20ee27fd9adebab32041f755214dbc6bffa90cc0225b39da2e5c2d3b60405160405180910390a2600081511115610ba857610ba28282610d5a565b50610bb1565b610bb0610dde565b5b5050565b600033905090565b610bc5610e1b565b610bfb576040517fd7e6bcf800000000000000000000000000000000000000000000000000000000815260040160405180910390fd5b565b610c05610bbd565b600073ffffffffffffffffffffffffffffffffffffffff168173ffffffffffffffffffffffffffffffffffffffff1603610c775760006040517f1e4fbdf7000000000000000000000000000000000000000000000000000000008152600401610c6e919061119a565b60405180910390fd5b610c80816109a6565b50565b6000819050919050565b60008173ffffffffffffffffffffffffffffffffffffffff163b03610ce957806040517f4c9c8ce3000000000000000000000000000000000000000000000000000000008152600401610ce0919061119a565b60405180910390fd5b80610d167f360894a13ba1a3210667c828492db98dca3e2076cc3735a920a3ca505d382bbc60001b610c83565b60000160006101000a81548173ffffffffffffffffffffffffffffffffffffffff021916908373ffffffffffffffffffffffffffffffffffffffff16021790555050565b60606000808473ffffffffffffffffffffffffffffffffffffffff1684604051610d8491906115a8565b600060405180830381855af49150503d8060008114610dbf576040519150601f19603f3d011682016040523d82523d6000602084013e610dc4565b606091505b5091509150610dd4858383610e3b565b9250505092915050565b6000341115610e19576040517fb398979f00000000000000000000000000000000000000000000000000000000815260040160405180910390fd5b565b6000610e25610aa5565b60000160089054906101000a900460ff16905090565b606082610e5057610e4b82610eca565b610ec2565b60008251148015610e78575060008473ffffffffffffffffffffffffffffffffffffffff163b145b15610eba57836040517f9996b315000000000000000000000000000000000000000000000000000000008152600401610eb1919061119a565b60405180910390fd5b819050610ec3565b5b9392505050565b600081511115610edd5780518082602001fd5b6040517f1425ea4200000000000000000000000000000000000000000000000000000000815260040160405180910390fd5b6000819050919050565b610f2281610f0f565b82525050565b6000602082019050610f3d6000830184610f19565b92915050565b6000604051905090565b600080fd5b600080fd5b600073ffffffffffffffffffffffffffffffffffffffff82169050919050565b6000610f8282610f57565b9050919050565b610f9281610f77565b8114610f9d57600080fd5b50565b600081359050610faf81610f89565b92915050565b600080fd5b600080fd5b6000601f19601f8301169050919050565b7f4e487b7100000000000000000000000000000000000000000000000000000000600052604160045260246000fd5b61100882610fbf565b810181811067ffffffffffffffff8211171561102757611026610fd0565b5b80604052505050565b600061103a610f43565b90506110468282610fff565b919050565b600067ffffffffffffffff82111561106657611065610fd0565b5b61106f82610fbf565b9050602081019050919050565b82818337600083830152505050565b600061109e6110998461104b565b611030565b9050828152602081018484840111156110ba576110b9610fba565b5b6110c584828561107c565b509392505050565b600082601f8301126110e2576110e1610fb5565b5b81356110f284826020860161108b565b91505092915050565b6000806040838503121561111257611111610f4d565b5b600061112085828601610fa0565b925050602083013567ffffffffffffffff81111561114157611140610f52565b5b61114d858286016110cd565b9150509250929050565b6000819050919050565b61116a81611157565b82525050565b60006020820190506111856000830184611161565b92915050565b61119481610f77565b82525050565b60006020820190506111af600083018461118b565b92915050565b600081519050919050565b600082825260208201905092915050565b60005b838110156111ef5780820151818401526020810190506111d4565b60008484015250505050565b6000611206826111b5565b61121081856111c0565b93506112208185602086016111d1565b61122981610fbf565b840191505092915050565b6000602082019050818103600083015261124e81846111fb565b905092915050565b61125f81610f0f565b811461126a57600080fd5b50565b60008135905061127c81611256565b92915050565b6000806040838503121561129957611298610f4d565b5b60006112a78582860161126d565b92505060206112b885828601610fa0565b9150509250929050565b6000602082840312156112d8576112d7610f4d565b5b60006112e684828501610fa0565b91505092915050565b7f4e487b7100000000000000000000000000000000000000000000000000000000600052601160045260246000fd5b600061132982610f0f565b915061133483610f0f565b925082820261134281610f0f565b91508282048414831517611359576113586112ef565b5b5092915050565b7f4e6f7468696e6720696e73696465000000000000000000000000000000000000600082015250565b6000611396600e836111c0565b91506113a182611360565b602082019050919050565b600060208201905081810360008301526113c581611389565b9050919050565b60006113d782610f0f565b91506113e283610f0f565b92508282039050818111156113fa576113f96112ef565b5b92915050565b600061140b82610f0f565b915061141683610f0f565b925082820190508082111561142e5761142d6112ef565b5b92915050565b7f4e487b7100000000000000000000000000000000000000000000000000000000600052601260045260246000fd5b600061146e82610f0f565b915061147983610f0f565b92508261148957611488611434565b5b828206905092915050565b6000819050919050565b600067ffffffffffffffff82169050919050565b6000819050919050565b60006114d76114d26114cd84611494565b6114b2565b61149e565b9050919050565b6114e7816114bc565b82525050565b600060208201905061150260008301846114de565b92915050565b61151181611157565b811461151c57600080fd5b50565b60008151905061152e81611508565b92915050565b60006020828403121561154a57611549610f4d565b5b60006115588482850161151f565b91505092915050565b600081519050919050565b600081905092915050565b600061158282611561565b61158c818561156c565b935061159c8185602086016111d1565b80840191505092915050565b60006115b48284611577565b91508190509291505056fea264697066735822122002ae4f75eda744ea23dfea8801559eda61cb05b74f9382f0787d5c4282a8875564736f6c63430008140033",
  "linkReferences": {},
  "deployedLinkReferences": {}
}