{
  "_format": "hh-sol-artifact-1",
  "contractName": "Zin",
  "sourceName": "contracts/Zin.sol",
  "abi": [
    {
      "inputs": [
        {
          "internalType": "address",
          "name": "target",
          "type": "address"
        }
      ],
      "name": "AddressEmptyCode",
      "type": "error"
    },
    {
      "inputs": [
        {
          "internalType": "address",
          "name": "implementation",
          "type": "address"
        }
      ],
      "name": "ERC1967InvalidImplementation",
      "type": "error"
    },
    {
      "inputs": [],
      "name": "ERC1967NonPayable",
      "type": "error"
    },
    {
      "inputs": [],
      "name": "FailedInnerCall",
      "type": "error"
    },
    {
      "inputs": [],
      "name": "InvalidInitialization",
      "type": "error"
    },
    {
      "inputs": [],
      "name": "NotInitializing",
      "type": "error"
    },
    {
      "inputs": [
        {
          "internalType": "address",
          "name": "owner",
          "type": "address"
        }
      ],
      "name": "OwnableInvalidOwner",
      "type": "error"
    },
    {
      "inputs": [
        {
          "internalType": "address",
          "name": "account",
          "type": "address"
        }
      ],
      "name": "OwnableUnauthorizedAccount",
      "type": "error"
    },
    {
      "inputs": [],
      "name": "UUPSUnauthorizedCallContext",
      "type": "error"
    },
    {
      "inputs": [
        {
          "internalType": "bytes32",
          "name": "slot",
          "type": "bytes32"
        }
      ],
      "name": "UUPSUnsupportedProxiableUUID",
      "type": "error"
    },
    {
      "anonymous": false,
      "inputs": [
        {
          "indexed": false,
          "internalType": "uint64",
          "name": "version",
          "type": "uint64"
        }
      ],
      "name": "Initialized",
      "type": "event"
    },
    {
      "anonymous": false,
      "inputs": [
        {
          "indexed": true,
          "internalType": "address",
          "name": "previousOwner",
          "type": "address"
        },
        {
          "indexed": true,
          "internalType": "address",
          "name": "newOwner",
          "type": "address"
        }
      ],
      "name": "OwnershipTransferred",
      "type": "event"
    },
    {
      "anonymous": false,
      "inputs": [
        {
          "indexed": true,
          "internalType": "address",
          "name": "implementation",
          "type": "address"
        }
      ],
      "name": "Upgraded",
      "type": "event"
    },
    {
      "inputs": [],
      "name": "UPGRADE_INTERFACE_VERSION",
      "outputs": [
        {
          "internalType": "string",
          "name": "",
          "type": "string"
        }
      ],
      "stateMutability": "view",
      "type": "function"
    },
    {
      "inputs": [],
      "name": "addObject",
      "outputs": [],
      "stateMutability": "nonpayable",
      "type": "function"
    },
    {
      "inputs": [
        {
          "internalType": "uint256",
          "name": "objects",
          "type": "uint256"
        },
        {
          "internalType": "address",
          "name": "multisig",
          "type": "address"
        }
      ],
      "name": "initialize",
      "outputs": [],
      "stateMutability": "nonpayable",
      "type": "function"
    },
    {
      "inputs": [],
      "name": "num",
      "outputs": [
        {
          "internalType": "uint256",
          "name": "",
          "type": "uint256"
        }
      ],
      "stateMutability": "view",
      "type": "function"
    },
    {
      "inputs": [],
      "name": "owner",
      "outputs": [
        {
          "internalType": "address",
          "name": "",
          "type": "address"
        }
      ],
      "stateMutability": "view",
      "type": "function"
    },
    {
      "inputs": [],
      "name": "proxiableUUID",
      "outputs": [
        {
          "internalType": "bytes32",
          "name": "",
          "type": "bytes32"
        }
      ],
      "stateMutability": "view",
      "type": "function"
    },
    {
      "inputs": [],
      "name": "removeObject",
      "outputs": [],
      "stateMutability": "nonpayable",
      "type": "function"
    },
    {
      "inputs": [],
      "name": "renounceOwnership",
      "outputs": [],
      "stateMutability": "nonpayable",
      "type": "function"
    },
    {
      "inputs": [
        {
          "internalType": "address",
          "name": "newOwner",
          "type": "address"
        }
      ],
      "name": "transferOwnership",
      "outputs": [],
      "stateMutability": "nonpayable",
      "type": "function"
    },
    {
      "inputs": [
        {
          "internalType": "address",
          "name": "newImplementation",
          "type": "address"
        },
        {
          "internalType": "bytes",
          "name": "data",
          "type": "bytes"
        }
      ],
      "name": "upgradeToAndCall",
      "outputs": [],
      "stateMutability": "payable",
      "type": "function"
    }
  ],
  "bytecode": "0x60a06040523073ffffffffffffffffffffffffffffffffffffffff1660809073ffffffffffffffffffffffffffffffffffffffff1681525034801561004357600080fd5b5060805161143d61006d60003960008181610574015281816105c90152610784015261143d6000f3fe6080604052600436106100915760003560e01c8063715018a611610059578063715018a6146101365780638da5cb5b1461014d578063ad3cb1cc14610178578063da35a26f146101a3578063f2fde38b146101cc57610091565b80632102ffaa146100965780634e70b1dc146100ad5780634f1ef286146100d857806352d1902d146100f457806362029d2a1461011f575b600080fd5b3480156100a257600080fd5b506100ab6101f5565b005b3480156100b957600080fd5b506100c2610255565b6040516100cf9190610e12565b60405180910390f35b6100f260048036038101906100ed9190610fe5565b61025b565b005b34801561010057600080fd5b5061010961027a565b604051610116919061105a565b60405180910390f35b34801561012b57600080fd5b506101346102ad565b005b34801561014257600080fd5b5061014b6102c8565b005b34801561015957600080fd5b506101626102dc565b60405161016f9190611084565b60405180910390f35b34801561018457600080fd5b5061018d610314565b60405161019a919061111e565b60405180910390f35b3480156101af57600080fd5b506101ca60048036038101906101c5919061116c565b61034d565b005b3480156101d857600080fd5b506101f360048036038101906101ee91906111ac565b6104ec565b005b60016000541161023a576040517f08c379a000000000000000000000000000000000000000000000000000000000815260040161023190611225565b60405180910390fd5b600160008082825461024c9190611274565b92505081905550565b60005481565b610263610572565b61026c82610658565b6102768282610663565b5050565b6000610284610782565b7f360894a13ba1a3210667c828492db98dca3e2076cc3735a920a3ca505d382bbc60001b905090565b60016000808282546102bf91906112a8565b92505081905550565b6102d0610809565b6102da6000610890565b565b6000806102e7610967565b90508060000160009054906101000a900473ffffffffffffffffffffffffffffffffffffffff1691505090565b6040518060400160405280600581526020017f352e302e3000000000000000000000000000000000000000000000000000000081525081565b600061035761098f565b905060008160000160089054906101000a900460ff1615905060008260000160009054906101000a900467ffffffffffffffff1690506000808267ffffffffffffffff161480156103a55750825b9050600060018367ffffffffffffffff161480156103da575060003073ffffffffffffffffffffffffffffffffffffffff163b145b9050811580156103e8575080155b1561041f576040517ff92ee8a900000000000000000000000000000000000000000000000000000000815260040160405180910390fd5b60018560000160006101000a81548167ffffffffffffffff021916908367ffffffffffffffff160217905550831561046f5760018560000160086101000a81548160ff0219169083151502179055505b6104776109b7565b610480866109c1565b8660008190555083156104e35760008560000160086101000a81548160ff0219169083151502179055507fc7f505b2f371ae2175ee4913f4499e1f2633a7b5936321eed1cdaeb6115181d260016040516104da9190611335565b60405180910390a15b50505050505050565b6104f4610809565b600073ffffffffffffffffffffffffffffffffffffffff168173ffffffffffffffffffffffffffffffffffffffff16036105665760006040517f1e4fbdf700000000000000000000000000000000000000000000000000000000815260040161055d9190611084565b60405180910390fd5b61056f81610890565b50565b7f000000000000000000000000000000000000000000000000000000000000000073ffffffffffffffffffffffffffffffffffffffff163073ffffffffffffffffffffffffffffffffffffffff16148061061f57507f000000000000000000000000000000000000000000000000000000000000000073ffffffffffffffffffffffffffffffffffffffff166106066109d5565b73ffffffffffffffffffffffffffffffffffffffff1614155b15610656576040517fe07c8dba00000000000000000000000000000000000000000000000000000000815260040160405180910390fd5b565b610660610809565b50565b8173ffffffffffffffffffffffffffffffffffffffff166352d1902d6040518163ffffffff1660e01b8152600401602060405180830381865afa9250505080156106cb57506040513d601f19601f820116820180604052508101906106c8919061137c565b60015b61070c57816040517f4c9c8ce30000000000000000000000000000000000000000000000000000000081526004016107039190611084565b60405180910390fd5b7f360894a13ba1a3210667c828492db98dca3e2076cc3735a920a3ca505d382bbc60001b811461077357806040517faa1d49a400000000000000000000000000000000000000000000000000000000815260040161076a919061105a565b60405180910390fd5b61077d8383610a2c565b505050565b7f000000000000000000000000000000000000000000000000000000000000000073ffffffffffffffffffffffffffffffffffffffff163073ffffffffffffffffffffffffffffffffffffffff1614610807576040517fe07c8dba00000000000000000000000000000000000000000000000000000000815260040160405180910390fd5b565b610811610a9f565b73ffffffffffffffffffffffffffffffffffffffff1661082f6102dc565b73ffffffffffffffffffffffffffffffffffffffff161461088e57610852610a9f565b6040517f118cdaa70000000000000000000000000000000000000000000000000000000081526004016108859190611084565b60405180910390fd5b565b600061089a610967565b905060008160000160009054906101000a900473ffffffffffffffffffffffffffffffffffffffff169050828260000160006101000a81548173ffffffffffffffffffffffffffffffffffffffff021916908373ffffffffffffffffffffffffffffffffffffffff1602179055508273ffffffffffffffffffffffffffffffffffffffff168173ffffffffffffffffffffffffffffffffffffffff167f8be0079c531659141344cd1fd0a4f28419497f9722a3daafe3b4186f6b6457e060405160405180910390a3505050565b60007f9016d09d72d40fdae2fd8ceac6b6234c7706214fd39c1cd1e609a0528c199300905090565b60007ff0c57e16840df040f15088dc2f81fe391c3923bec73e23a9662efc9c229c6a00905090565b6109bf610aa7565b565b6109c9610aa7565b6109d281610ae7565b50565b6000610a037f360894a13ba1a3210667c828492db98dca3e2076cc3735a920a3ca505d382bbc60001b610b6d565b60000160009054906101000a900473ffffffffffffffffffffffffffffffffffffffff16905090565b610a3582610b77565b8173ffffffffffffffffffffffffffffffffffffffff167fbc7cd75a20ee27fd9adebab32041f755214dbc6bffa90cc0225b39da2e5c2d3b60405160405180910390a2600081511115610a9257610a8c8282610c44565b50610a9b565b610a9a610cc8565b5b5050565b600033905090565b610aaf610d05565b610ae5576040517fd7e6bcf800000000000000000000000000000000000000000000000000000000815260040160405180910390fd5b565b610aef610aa7565b600073ffffffffffffffffffffffffffffffffffffffff168173ffffffffffffffffffffffffffffffffffffffff1603610b615760006040517f1e4fbdf7000000000000000000000000000000000000000000000000000000008152600401610b589190611084565b60405180910390fd5b610b6a81610890565b50565b6000819050919050565b60008173ffffffffffffffffffffffffffffffffffffffff163b03610bd357806040517f4c9c8ce3000000000000000000000000000000000000000000000000000000008152600401610bca9190611084565b60405180910390fd5b80610c007f360894a13ba1a3210667c828492db98dca3e2076cc3735a920a3ca505d382bbc60001b610b6d565b60000160006101000a81548173ffffffffffffffffffffffffffffffffffffffff021916908373ffffffffffffffffffffffffffffffffffffffff16021790555050565b60606000808473ffffffffffffffffffffffffffffffffffffffff1684604051610c6e91906113f0565b600060405180830381855af49150503d8060008114610ca9576040519150601f19603f3d011682016040523d82523d6000602084013e610cae565b606091505b5091509150610cbe858383610d25565b9250505092915050565b6000341115610d03576040517fb398979f00000000000000000000000000000000000000000000000000000000815260040160405180910390fd5b565b6000610d0f61098f565b60000160089054906101000a900460ff16905090565b606082610d3a57610d3582610db4565b610dac565b60008251148015610d62575060008473ffffffffffffffffffffffffffffffffffffffff163b145b15610da457836040517f9996b315000000000000000000000000000000000000000000000000000000008152600401610d9b9190611084565b60405180910390fd5b819050610dad565b5b9392505050565b600081511115610dc75780518082602001fd5b6040517f1425ea4200000000000000000000000000000000000000000000000000000000815260040160405180910390fd5b6000819050919050565b610e0c81610df9565b82525050565b6000602082019050610e276000830184610e03565b92915050565b6000604051905090565b600080fd5b600080fd5b600073ffffffffffffffffffffffffffffffffffffffff82169050919050565b6000610e6c82610e41565b9050919050565b610e7c81610e61565b8114610e8757600080fd5b50565b600081359050610e9981610e73565b92915050565b600080fd5b600080fd5b6000601f19601f8301169050919050565b7f4e487b7100000000000000000000000000000000000000000000000000000000600052604160045260246000fd5b610ef282610ea9565b810181811067ffffffffffffffff82111715610f1157610f10610eba565b5b80604052505050565b6000610f24610e2d565b9050610f308282610ee9565b919050565b600067ffffffffffffffff821115610f5057610f4f610eba565b5b610f5982610ea9565b9050602081019050919050565b82818337600083830152505050565b6000610f88610f8384610f35565b610f1a565b905082815260208101848484011115610fa457610fa3610ea4565b5b610faf848285610f66565b509392505050565b600082601f830112610fcc57610fcb610e9f565b5b8135610fdc848260208601610f75565b91505092915050565b60008060408385031215610ffc57610ffb610e37565b5b600061100a85828601610e8a565b925050602083013567ffffffffffffffff81111561102b5761102a610e3c565b5b61103785828601610fb7565b9150509250929050565b6000819050919050565b61105481611041565b82525050565b600060208201905061106f600083018461104b565b92915050565b61107e81610e61565b82525050565b60006020820190506110996000830184611075565b92915050565b600081519050919050565b600082825260208201905092915050565b60005b838110156110d95780820151818401526020810190506110be565b60008484015250505050565b60006110f08261109f565b6110fa81856110aa565b935061110a8185602086016110bb565b61111381610ea9565b840191505092915050565b6000602082019050818103600083015261113881846110e5565b905092915050565b61114981610df9565b811461115457600080fd5b50565b60008135905061116681611140565b92915050565b6000806040838503121561118357611182610e37565b5b600061119185828601611157565b92505060206111a285828601610e8a565b9150509250929050565b6000602082840312156111c2576111c1610e37565b5b60006111d084828501610e8a565b91505092915050565b7f4e6f7468696e6720696e73696465000000000000000000000000000000000000600082015250565b600061120f600e836110aa565b915061121a826111d9565b602082019050919050565b6000602082019050818103600083015261123e81611202565b9050919050565b7f4e487b7100000000000000000000000000000000000000000000000000000000600052601160045260246000fd5b600061127f82610df9565b915061128a83610df9565b92508282039050818111156112a2576112a1611245565b5b92915050565b60006112b382610df9565b91506112be83610df9565b92508282019050808211156112d6576112d5611245565b5b92915050565b6000819050919050565b600067ffffffffffffffff82169050919050565b6000819050919050565b600061131f61131a611315846112dc565b6112fa565b6112e6565b9050919050565b61132f81611304565b82525050565b600060208201905061134a6000830184611326565b92915050565b61135981611041565b811461136457600080fd5b50565b60008151905061137681611350565b92915050565b60006020828403121561139257611391610e37565b5b60006113a084828501611367565b91505092915050565b600081519050919050565b600081905092915050565b60006113ca826113a9565b6113d481856113b4565b93506113e48185602086016110bb565b80840191505092915050565b60006113fc82846113bf565b91508190509291505056fea26469706673582212202344f5b9bd010084fb25ab3358b8091e9517fab8223703025a7dd6b1dd4ad59564736f6c63430008140033",
  "linkReferences": {},
  "deployedLinkReferences": {}
}