{
  "_format": "hh-sol-artifact-1",
  "contractName": "BoxV2",
  "sourceName": "contracts/BoxV2.sol",
  "abi": [
    {
      "inputs": [
        {
          "internalType": "address",
          "name": "target",
          "type": "address"
        }
      ],
      "name": "AddressEmptyCode",
      "type": "error"
    },
    {
      "inputs": [
        {
          "internalType": "address",
          "name": "implementation",
          "type": "address"
        }
      ],
      "name": "ERC1967InvalidImplementation",
      "type": "error"
    },
    {
      "inputs": [],
      "name": "ERC1967NonPayable",
      "type": "error"
    },
    {
      "inputs": [],
      "name": "FailedInnerCall",
      "type": "error"
    },
    {
      "inputs": [],
      "name": "InvalidInitialization",
      "type": "error"
    },
    {
      "inputs": [],
      "name": "NotInitializing",
      "type": "error"
    },
    {
      "inputs": [
        {
          "internalType": "address",
          "name": "owner",
          "type": "address"
        }
      ],
      "name": "OwnableInvalidOwner",
      "type": "error"
    },
    {
      "inputs": [
        {
          "internalType": "address",
          "name": "account",
          "type": "address"
        }
      ],
      "name": "OwnableUnauthorizedAccount",
      "type": "error"
    },
    {
      "inputs": [],
      "name": "UUPSUnauthorizedCallContext",
      "type": "error"
    },
    {
      "inputs": [
        {
          "internalType": "bytes32",
          "name": "slot",
          "type": "bytes32"
        }
      ],
      "name": "UUPSUnsupportedProxiableUUID",
      "type": "error"
    },
    {
      "anonymous": false,
      "inputs": [
        {
          "indexed": false,
          "internalType": "uint64",
          "name": "version",
          "type": "uint64"
        }
      ],
      "name": "Initialized",
      "type": "event"
    },
    {
      "anonymous": false,
      "inputs": [
        {
          "indexed": true,
          "internalType": "address",
          "name": "previousOwner",
          "type": "address"
        },
        {
          "indexed": true,
          "internalType": "address",
          "name": "newOwner",
          "type": "address"
        }
      ],
      "name": "OwnershipTransferred",
      "type": "event"
    },
    {
      "anonymous": false,
      "inputs": [
        {
          "indexed": true,
          "internalType": "address",
          "name": "implementation",
          "type": "address"
        }
      ],
      "name": "Upgraded",
      "type": "event"
    },
    {
      "inputs": [],
      "name": "UPGRADE_INTERFACE_VERSION",
      "outputs": [
        {
          "internalType": "string",
          "name": "",
          "type": "string"
        }
      ],
      "stateMutability": "view",
      "type": "function"
    },
    {
      "inputs": [],
      "name": "addObject",
      "outputs": [],
      "stateMutability": "nonpayable",
      "type": "function"
    },
    {
      "inputs": [],
      "name": "boxVersion",
      "outputs": [
        {
          "internalType": "uint256",
          "name": "",
          "type": "uint256"
        }
      ],
      "stateMutability": "pure",
      "type": "function"
    },
    {
      "inputs": [
        {
          "internalType": "uint256",
          "name": "objects",
          "type": "uint256"
        },
        {
          "internalType": "address",
          "name": "multisig",
          "type": "address"
        }
      ],
      "name": "initialize",
      "outputs": [],
      "stateMutability": "nonpayable",
      "type": "function"
    },
    {
      "inputs": [],
      "name": "multiplyByTwo",
      "outputs": [],
      "stateMutability": "nonpayable",
      "type": "function"
    },
    {
      "inputs": [],
      "name": "numberOfObjects",
      "outputs": [
        {
          "internalType": "uint256",
          "name": "",
          "type": "uint256"
        }
      ],
      "stateMutability": "view",
      "type": "function"
    },
    {
      "inputs": [],
      "name": "owner",
      "outputs": [
        {
          "internalType": "address",
          "name": "",
          "type": "address"
        }
      ],
      "stateMutability": "view",
      "type": "function"
    },
    {
      "inputs": [],
      "name": "proxiableUUID",
      "outputs": [
        {
          "internalType": "bytes32",
          "name": "",
          "type": "bytes32"
        }
      ],
      "stateMutability": "view",
      "type": "function"
    },
    {
      "inputs": [],
      "name": "removeObject",
      "outputs": [],
      "stateMutability": "nonpayable",
      "type": "function"
    },
    {
      "inputs": [],
      "name": "renounceOwnership",
      "outputs": [],
      "stateMutability": "nonpayable",
      "type": "function"
    },
    {
      "inputs": [
        {
          "internalType": "address",
          "name": "newOwner",
          "type": "address"
        }
      ],
      "name": "transferOwnership",
      "outputs": [],
      "stateMutability": "nonpayable",
      "type": "function"
    },
    {
      "inputs": [
        {
          "internalType": "address",
          "name": "newImplementation",
          "type": "address"
        },
        {
          "internalType": "bytes",
          "name": "data",
          "type": "bytes"
        }
      ],
      "name": "upgradeToAndCall",
      "outputs": [],
      "stateMutability": "payable",
      "type": "function"
    }
  ],
  "bytecode": "0x60a06040523073ffffffffffffffffffffffffffffffffffffffff1660809073ffffffffffffffffffffffffffffffffffffffff1681525034801561004357600080fd5b506080516114fb61006d600039600081816105f001528181610645015261080001526114fb6000f3fe6080604052600436106100a75760003560e01c8063715018a611610064578063715018a6146101635780638da5cb5b1461017a578063ad3cb1cc146101a5578063c4df490e146101d0578063da35a26f146101fb578063f2fde38b14610224576100a7565b80630b12625e146100ac5780632102ffaa146100c35780634f1ef286146100da57806352d1902d146100f657806362029d2a14610121578063658504d114610138575b600080fd5b3480156100b857600080fd5b506100c161024d565b005b3480156100cf57600080fd5b506100d8610268565b005b6100f460048036038101906100ef919061102d565b6102c8565b005b34801561010257600080fd5b5061010b6102e7565b60405161011891906110a2565b60405180910390f35b34801561012d57600080fd5b5061013661031a565b005b34801561014457600080fd5b5061014d610335565b60405161015a91906110d6565b60405180910390f35b34801561016f57600080fd5b5061017861033b565b005b34801561018657600080fd5b5061018f61034f565b60405161019c9190611100565b60405180910390f35b3480156101b157600080fd5b506101ba610387565b6040516101c7919061119a565b60405180910390f35b3480156101dc57600080fd5b506101e56103c0565b6040516101f291906110d6565b60405180910390f35b34801561020757600080fd5b50610222600480360381019061021d91906111e8565b6103c9565b005b34801561023057600080fd5b5061024b60048036038101906102469190611228565b610568565b005b600260008082825461025f9190611284565b92505081905550565b6001600054116102ad576040517f08c379a00000000000000000000000000000000000000000000000000000000081526004016102a490611312565b60405180910390fd5b60016000808282546102bf9190611332565b92505081905550565b6102d06105ee565b6102d9826106d4565b6102e382826106df565b5050565b60006102f16107fe565b7f360894a13ba1a3210667c828492db98dca3e2076cc3735a920a3ca505d382bbc60001b905090565b600160008082825461032c9190611366565b92505081905550565b60005481565b610343610885565b61034d600061090c565b565b60008061035a6109e3565b90508060000160009054906101000a900473ffffffffffffffffffffffffffffffffffffffff1691505090565b6040518060400160405280600581526020017f352e302e3000000000000000000000000000000000000000000000000000000081525081565b60006002905090565b60006103d3610a0b565b905060008160000160089054906101000a900460ff1615905060008260000160009054906101000a900467ffffffffffffffff1690506000808267ffffffffffffffff161480156104215750825b9050600060018367ffffffffffffffff16148015610456575060003073ffffffffffffffffffffffffffffffffffffffff163b145b905081158015610464575080155b1561049b576040517ff92ee8a900000000000000000000000000000000000000000000000000000000815260040160405180910390fd5b60018560000160006101000a81548167ffffffffffffffff021916908367ffffffffffffffff16021790555083156104eb5760018560000160086101000a81548160ff0219169083151502179055505b6104f3610a33565b6104fc86610a3d565b86600081905550831561055f5760008560000160086101000a81548160ff0219169083151502179055507fc7f505b2f371ae2175ee4913f4499e1f2633a7b5936321eed1cdaeb6115181d2600160405161055691906113f3565b60405180910390a15b50505050505050565b610570610885565b600073ffffffffffffffffffffffffffffffffffffffff168173ffffffffffffffffffffffffffffffffffffffff16036105e25760006040517f1e4fbdf70000000000000000000000000000000000000000000000000000000081526004016105d99190611100565b60405180910390fd5b6105eb8161090c565b50565b7f000000000000000000000000000000000000000000000000000000000000000073ffffffffffffffffffffffffffffffffffffffff163073ffffffffffffffffffffffffffffffffffffffff16148061069b57507f000000000000000000000000000000000000000000000000000000000000000073ffffffffffffffffffffffffffffffffffffffff16610682610a51565b73ffffffffffffffffffffffffffffffffffffffff1614155b156106d2576040517fe07c8dba00000000000000000000000000000000000000000000000000000000815260040160405180910390fd5b565b6106dc610885565b50565b8173ffffffffffffffffffffffffffffffffffffffff166352d1902d6040518163ffffffff1660e01b8152600401602060405180830381865afa92505050801561074757506040513d601f19601f82011682018060405250810190610744919061143a565b60015b61078857816040517f4c9c8ce300000000000000000000000000000000000000000000000000000000815260040161077f9190611100565b60405180910390fd5b7f360894a13ba1a3210667c828492db98dca3e2076cc3735a920a3ca505d382bbc60001b81146107ef57806040517faa1d49a40000000000000000000000000000000000000000000000000000000081526004016107e691906110a2565b60405180910390fd5b6107f98383610aa8565b505050565b7f000000000000000000000000000000000000000000000000000000000000000073ffffffffffffffffffffffffffffffffffffffff163073ffffffffffffffffffffffffffffffffffffffff1614610883576040517fe07c8dba00000000000000000000000000000000000000000000000000000000815260040160405180910390fd5b565b61088d610b1b565b73ffffffffffffffffffffffffffffffffffffffff166108ab61034f565b73ffffffffffffffffffffffffffffffffffffffff161461090a576108ce610b1b565b6040517f118cdaa70000000000000000000000000000000000000000000000000000000081526004016109019190611100565b60405180910390fd5b565b60006109166109e3565b905060008160000160009054906101000a900473ffffffffffffffffffffffffffffffffffffffff169050828260000160006101000a81548173ffffffffffffffffffffffffffffffffffffffff021916908373ffffffffffffffffffffffffffffffffffffffff1602179055508273ffffffffffffffffffffffffffffffffffffffff168173ffffffffffffffffffffffffffffffffffffffff167f8be0079c531659141344cd1fd0a4f28419497f9722a3daafe3b4186f6b6457e060405160405180910390a3505050565b60007f9016d09d72d40fdae2fd8ceac6b6234c7706214fd39c1cd1e609a0528c199300905090565b60007ff0c57e16840df040f15088dc2f81fe391c3923bec73e23a9662efc9c229c6a00905090565b610a3b610b23565b565b610a45610b23565b610a4e81610b63565b50565b6000610a7f7f360894a13ba1a3210667c828492db98dca3e2076cc3735a920a3ca505d382bbc60001b610be9565b60000160009054906101000a900473ffffffffffffffffffffffffffffffffffffffff16905090565b610ab182610bf3565b8173ffffffffffffffffffffffffffffffffffffffff167fbc7cd75a20ee27fd9adebab32041f755214dbc6bffa90cc0225b39da2e5c2d3b60405160405180910390a2600081511115610b0e57610b088282610cc0565b50610b17565b610b16610d44565b5b5050565b600033905090565b610b2b610d81565b610b61576040517fd7e6bcf800000000000000000000000000000000000000000000000000000000815260040160405180910390fd5b565b610b6b610b23565b600073ffffffffffffffffffffffffffffffffffffffff168173ffffffffffffffffffffffffffffffffffffffff1603610bdd5760006040517f1e4fbdf7000000000000000000000000000000000000000000000000000000008152600401610bd49190611100565b60405180910390fd5b610be68161090c565b50565b6000819050919050565b60008173ffffffffffffffffffffffffffffffffffffffff163b03610c4f57806040517f4c9c8ce3000000000000000000000000000000000000000000000000000000008152600401610c469190611100565b60405180910390fd5b80610c7c7f360894a13ba1a3210667c828492db98dca3e2076cc3735a920a3ca505d382bbc60001b610be9565b60000160006101000a81548173ffffffffffffffffffffffffffffffffffffffff021916908373ffffffffffffffffffffffffffffffffffffffff16021790555050565b60606000808473ffffffffffffffffffffffffffffffffffffffff1684604051610cea91906114ae565b600060405180830381855af49150503d8060008114610d25576040519150601f19603f3d011682016040523d82523d6000602084013e610d2a565b606091505b5091509150610d3a858383610da1565b9250505092915050565b6000341115610d7f576040517fb398979f00000000000000000000000000000000000000000000000000000000815260040160405180910390fd5b565b6000610d8b610a0b565b60000160089054906101000a900460ff16905090565b606082610db657610db182610e30565b610e28565b60008251148015610dde575060008473ffffffffffffffffffffffffffffffffffffffff163b145b15610e2057836040517f9996b315000000000000000000000000000000000000000000000000000000008152600401610e179190611100565b60405180910390fd5b819050610e29565b5b9392505050565b600081511115610e435780518082602001fd5b6040517f1425ea4200000000000000000000000000000000000000000000000000000000815260040160405180910390fd5b6000604051905090565b600080fd5b600080fd5b600073ffffffffffffffffffffffffffffffffffffffff82169050919050565b6000610eb482610e89565b9050919050565b610ec481610ea9565b8114610ecf57600080fd5b50565b600081359050610ee181610ebb565b92915050565b600080fd5b600080fd5b6000601f19601f8301169050919050565b7f4e487b7100000000000000000000000000000000000000000000000000000000600052604160045260246000fd5b610f3a82610ef1565b810181811067ffffffffffffffff82111715610f5957610f58610f02565b5b80604052505050565b6000610f6c610e75565b9050610f788282610f31565b919050565b600067ffffffffffffffff821115610f9857610f97610f02565b5b610fa182610ef1565b9050602081019050919050565b82818337600083830152505050565b6000610fd0610fcb84610f7d565b610f62565b905082815260208101848484011115610fec57610feb610eec565b5b610ff7848285610fae565b509392505050565b600082601f83011261101457611013610ee7565b5b8135611024848260208601610fbd565b91505092915050565b6000806040838503121561104457611043610e7f565b5b600061105285828601610ed2565b925050602083013567ffffffffffffffff81111561107357611072610e84565b5b61107f85828601610fff565b9150509250929050565b6000819050919050565b61109c81611089565b82525050565b60006020820190506110b76000830184611093565b92915050565b6000819050919050565b6110d0816110bd565b82525050565b60006020820190506110eb60008301846110c7565b92915050565b6110fa81610ea9565b82525050565b600060208201905061111560008301846110f1565b92915050565b600081519050919050565b600082825260208201905092915050565b60005b8381101561115557808201518184015260208101905061113a565b60008484015250505050565b600061116c8261111b565b6111768185611126565b9350611186818560208601611137565b61118f81610ef1565b840191505092915050565b600060208201905081810360008301526111b48184611161565b905092915050565b6111c5816110bd565b81146111d057600080fd5b50565b6000813590506111e2816111bc565b92915050565b600080604083850312156111ff576111fe610e7f565b5b600061120d858286016111d3565b925050602061121e85828601610ed2565b9150509250929050565b60006020828403121561123e5761123d610e7f565b5b600061124c84828501610ed2565b91505092915050565b7f4e487b7100000000000000000000000000000000000000000000000000000000600052601160045260246000fd5b600061128f826110bd565b915061129a836110bd565b92508282026112a8816110bd565b915082820484148315176112bf576112be611255565b5b5092915050565b7f4e6f7468696e6720696e73696465000000000000000000000000000000000000600082015250565b60006112fc600e83611126565b9150611307826112c6565b602082019050919050565b6000602082019050818103600083015261132b816112ef565b9050919050565b600061133d826110bd565b9150611348836110bd565b92508282039050818111156113605761135f611255565b5b92915050565b6000611371826110bd565b915061137c836110bd565b925082820190508082111561139457611393611255565b5b92915050565b6000819050919050565b600067ffffffffffffffff82169050919050565b6000819050919050565b60006113dd6113d86113d38461139a565b6113b8565b6113a4565b9050919050565b6113ed816113c2565b82525050565b600060208201905061140860008301846113e4565b92915050565b61141781611089565b811461142257600080fd5b50565b6000815190506114348161140e565b92915050565b6000602082840312156114505761144f610e7f565b5b600061145e84828501611425565b91505092915050565b600081519050919050565b600081905092915050565b600061148882611467565b6114928185611472565b93506114a2818560208601611137565b80840191505092915050565b60006114ba828461147d565b91508190509291505056fea2646970667358221220340b68b09dd5114abbfc6a4bf1c0a0b805de90e723575eeaaf2ffb16f0473c0f64736f6c63430008140033",
  "linkReferences": {},
  "deployedLinkReferences": {}
}